{
	"FundMe.sol": {
		"FundMe": {
			"abi": [
				{
					"inputs": [],
					"stateMutability": "nonpayable",
					"type": "constructor"
				},
				{
					"inputs": [
						{
							"internalType": "address",
							"name": "funder",
							"type": "address"
						}
					],
					"name": "addressToAmtFunded",
					"outputs": [
						{
							"internalType": "uint256",
							"name": "amountFunded",
							"type": "uint256"
						}
					],
					"stateMutability": "view",
					"type": "function"
				},
				{
					"inputs": [],
					"name": "fund",
					"outputs": [],
					"stateMutability": "payable",
					"type": "function"
				},
				{
					"inputs": [
						{
							"internalType": "uint256",
							"name": "",
							"type": "uint256"
						}
					],
					"name": "funders",
					"outputs": [
						{
							"internalType": "address",
							"name": "",
							"type": "address"
						}
					],
					"stateMutability": "view",
					"type": "function"
				},
				{
					"inputs": [],
					"name": "minAmtInUSD",
					"outputs": [
						{
							"internalType": "uint256",
							"name": "",
							"type": "uint256"
						}
					],
					"stateMutability": "view",
					"type": "function"
				},
				{
					"inputs": [],
					"name": "withdraw",
					"outputs": [],
					"stateMutability": "nonpayable",
					"type": "function"
				}
			],
			"devdoc": {
				"kind": "dev",
				"methods": {},
				"version": 1
			},
			"evm": {
				"assembly": "    /* \"FundMe.sol\":482:4786  contract FundMe {... */\n  mstore(0x40, 0x80)\n    /* \"FundMe.sol\":1537:1541  5e18 */\n  0x4563918244f40000\n    /* \"FundMe.sol\":1508:1541  uint256 public minAmtInUSD = 5e18 */\n  0x03\n  sstore\n    /* \"FundMe.sol\":1411:1502  constructor(){... */\n  callvalue\n  dup1\n  iszero\n  tag_1\n  jumpi\n  revert(0x00, 0x00)\ntag_1:\n  pop\n    /* \"FundMe.sol\":1442:1452  msg.sender */\n  caller\n    /* \"FundMe.sol\":1434:1439  owner */\n  0x02\n  0x00\n    /* \"FundMe.sol\":1434:1452  owner = msg.sender */\n  0x0100\n  exp\n  dup2\n  sload\n  dup2\n  0xffffffffffffffffffffffffffffffffffffffff\n  mul\n  not\n  and\n  swap1\n  dup4\n  0xffffffffffffffffffffffffffffffffffffffff\n  and\n  mul\n  or\n  swap1\n  sstore\n  pop\n    /* \"FundMe.sol\":482:4786  contract FundMe {... */\n  dataSize(sub_0)\n  dup1\n  dataOffset(sub_0)\n  0x00\n  codecopy\n  0x00\n  return\nstop\n\nsub_0: assembly {\n        /* \"FundMe.sol\":482:4786  contract FundMe {... */\n      mstore(0x40, 0x80)\n      jumpi(tag_1, lt(calldatasize, 0x04))\n      shr(0xe0, calldataload(0x00))\n      dup1\n      0x2e715429\n      eq\n      tag_2\n      jumpi\n      dup1\n      0x3ccfd60b\n      eq\n      tag_3\n      jumpi\n      dup1\n      0x72437bfd\n      eq\n      tag_4\n      jumpi\n      dup1\n      0xb60d4288\n      eq\n      tag_5\n      jumpi\n      dup1\n      0xdc0d3dff\n      eq\n      tag_6\n      jumpi\n    tag_1:\n      revert(0x00, 0x00)\n        /* \"FundMe.sol\":954:1026  mapping(address funder =>uint256 amountFunded) public addressToAmtFunded */\n    tag_2:\n      callvalue\n      dup1\n      iszero\n      tag_7\n      jumpi\n      revert(0x00, 0x00)\n    tag_7:\n      pop\n      tag_8\n      0x04\n      dup1\n      calldatasize\n      sub\n      dup2\n      add\n      swap1\n      tag_9\n      swap2\n      swap1\n      tag_10\n      jump\t// in\n    tag_9:\n      tag_11\n      jump\t// in\n    tag_8:\n      mload(0x40)\n      tag_12\n      swap2\n      swap1\n      tag_13\n      jump\t// in\n    tag_12:\n      mload(0x40)\n      dup1\n      swap2\n      sub\n      swap1\n      return\n        /* \"FundMe.sol\":2592:4310  function withdraw() public onlyOwner {... */\n    tag_3:\n      callvalue\n      dup1\n      iszero\n      tag_14\n      jumpi\n      revert(0x00, 0x00)\n    tag_14:\n      pop\n      tag_15\n      tag_16\n      jump\t// in\n    tag_15:\n      stop\n        /* \"FundMe.sol\":1508:1541  uint256 public minAmtInUSD = 5e18 */\n    tag_4:\n      callvalue\n      dup1\n      iszero\n      tag_17\n      jumpi\n      revert(0x00, 0x00)\n    tag_17:\n      pop\n      tag_18\n      tag_19\n      jump\t// in\n    tag_18:\n      mload(0x40)\n      tag_20\n      swap2\n      swap1\n      tag_13\n      jump\t// in\n    tag_20:\n      mload(0x40)\n      dup1\n      swap2\n      sub\n      swap1\n      return\n        /* \"FundMe.sol\":1610:2586  function fund() public payable{... */\n    tag_5:\n      tag_21\n      tag_22\n      jump\t// in\n    tag_21:\n      stop\n        /* \"FundMe.sol\":924:948  address[] public funders */\n    tag_6:\n      callvalue\n      dup1\n      iszero\n      tag_23\n      jumpi\n      revert(0x00, 0x00)\n    tag_23:\n      pop\n      tag_24\n      0x04\n      dup1\n      calldatasize\n      sub\n      dup2\n      add\n      swap1\n      tag_25\n      swap2\n      swap1\n      tag_26\n      jump\t// in\n    tag_25:\n      tag_27\n      jump\t// in\n    tag_24:\n      mload(0x40)\n      tag_28\n      swap2\n      swap1\n      tag_29\n      jump\t// in\n    tag_28:\n      mload(0x40)\n      dup1\n      swap2\n      sub\n      swap1\n      return\n        /* \"FundMe.sol\":954:1026  mapping(address funder =>uint256 amountFunded) public addressToAmtFunded */\n    tag_11:\n      mstore(0x20, 0x01)\n      dup1\n      0x00\n      mstore\n      keccak256(0x00, 0x40)\n      0x00\n      swap2\n      pop\n      swap1\n      pop\n      sload\n      dup2\n      jump\t// out\n        /* \"FundMe.sol\":2592:4310  function withdraw() public onlyOwner {... */\n    tag_16:\n        /* \"FundMe.sol\":4636:4641  owner */\n      0x02\n      0x00\n      swap1\n      sload\n      swap1\n      0x0100\n      exp\n      swap1\n      div\n      0xffffffffffffffffffffffffffffffffffffffff\n      and\n        /* \"FundMe.sol\":4624:4641  msg.sender==owner */\n      0xffffffffffffffffffffffffffffffffffffffff\n      and\n        /* \"FundMe.sol\":4624:4634  msg.sender */\n      caller\n        /* \"FundMe.sol\":4624:4641  msg.sender==owner */\n      0xffffffffffffffffffffffffffffffffffffffff\n      and\n      eq\n        /* \"FundMe.sol\":4616:4667  require(msg.sender==owner,\"Only owner can access.\") */\n      tag_31\n      jumpi\n      mload(0x40)\n      0x08c379a000000000000000000000000000000000000000000000000000000000\n      dup2\n      mstore\n      0x04\n      add\n      tag_32\n      swap1\n      tag_33\n      jump\t// in\n    tag_32:\n      mload(0x40)\n      dup1\n      swap2\n      sub\n      swap1\n      revert\n    tag_31:\n        /* \"FundMe.sol\":2863:2882  uint256 funderIndex */\n      0x00\n        /* \"FundMe.sol\":2883:2884  0 */\n      0x00\n        /* \"FundMe.sol\":2863:2884  uint256 funderIndex=0 */\n      swap1\n      pop\n        /* \"FundMe.sol\":2858:3029  for (uint256 funderIndex=0;funderIndex<funders.length;funderIndex++){... */\n    tag_35:\n        /* \"FundMe.sol\":2897:2904  funders */\n      0x00\n        /* \"FundMe.sol\":2897:2911  funders.length */\n      dup1\n      sload\n      swap1\n      pop\n        /* \"FundMe.sol\":2885:2896  funderIndex */\n      dup2\n        /* \"FundMe.sol\":2885:2911  funderIndex<funders.length */\n      lt\n        /* \"FundMe.sol\":2858:3029  for (uint256 funderIndex=0;funderIndex<funders.length;funderIndex++){... */\n      iszero\n      tag_36\n      jumpi\n        /* \"FundMe.sol\":2939:2953  address funder */\n      0x00\n        /* \"FundMe.sol\":2956:2963  funders */\n      0x00\n        /* \"FundMe.sol\":2964:2975  funderIndex */\n      dup3\n        /* \"FundMe.sol\":2956:2976  funders[funderIndex] */\n      dup2\n      sload\n      dup2\n      lt\n      tag_38\n      jumpi\n      tag_39\n      tag_40\n      jump\t// in\n    tag_39:\n    tag_38:\n      swap1\n      0x00\n      mstore\n      keccak256(0x00, 0x20)\n      add\n      0x00\n      swap1\n      sload\n      swap1\n      0x0100\n      exp\n      swap1\n      div\n      0xffffffffffffffffffffffffffffffffffffffff\n      and\n        /* \"FundMe.sol\":2939:2976  address funder = funders[funderIndex] */\n      swap1\n      pop\n        /* \"FundMe.sol\":3016:3017  0 */\n      0x00\n        /* \"FundMe.sol\":2989:3007  addressToAmtFunded */\n      0x01\n        /* \"FundMe.sol\":2989:3015  addressToAmtFunded[funder] */\n      0x00\n        /* \"FundMe.sol\":3008:3014  funder */\n      dup4\n        /* \"FundMe.sol\":2989:3015  addressToAmtFunded[funder] */\n      0xffffffffffffffffffffffffffffffffffffffff\n      and\n      0xffffffffffffffffffffffffffffffffffffffff\n      and\n      dup2\n      mstore\n      0x20\n      add\n      swap1\n      dup2\n      mstore\n      0x20\n      add\n      0x00\n      keccak256\n        /* \"FundMe.sol\":2989:3017  addressToAmtFunded[funder]=0 */\n      dup2\n      swap1\n      sstore\n      pop\n        /* \"FundMe.sol\":2926:3029  {... */\n      pop\n        /* \"FundMe.sol\":2912:2925  funderIndex++ */\n      dup1\n      dup1\n      0x01\n      add\n      swap2\n      pop\n      pop\n        /* \"FundMe.sol\":2858:3029  for (uint256 funderIndex=0;funderIndex<funders.length;funderIndex++){... */\n      jump(tag_35)\n    tag_36:\n      pop\n        /* \"FundMe.sol\":3091:3092  0 */\n      0x00\n        /* \"FundMe.sol\":3077:3093  new address[](0) */\n      0xffffffffffffffff\n      dup2\n      gt\n      iszero\n      tag_42\n      jumpi\n      tag_43\n      tag_44\n      jump\t// in\n    tag_43:\n    tag_42:\n      mload(0x40)\n      swap1\n      dup1\n      dup3\n      mstore\n      dup1\n      0x20\n      mul\n      0x20\n      add\n      dup3\n      add\n      0x40\n      mstore\n      dup1\n      iszero\n      tag_45\n      jumpi\n      dup2\n      0x20\n      add\n      0x20\n      dup3\n      mul\n      dup1\n      calldatasize\n      dup4\n      calldatacopy\n      dup1\n      dup3\n      add\n      swap2\n      pop\n      pop\n      swap1\n      pop\n    tag_45:\n      pop\n        /* \"FundMe.sol\":3067:3074  funders */\n      0x00\n        /* \"FundMe.sol\":3067:3093  funders = new address[](0) */\n      swap1\n      dup1\n      mload\n      swap1\n      0x20\n      add\n      swap1\n      tag_46\n      swap3\n      swap2\n      swap1\n      tag_47\n      jump\t// in\n    tag_46:\n      pop\n        /* \"FundMe.sol\":4100:4116  bool callSuccess */\n      0x00\n        /* \"FundMe.sol\":4159:4169  msg.sender */\n      caller\n        /* \"FundMe.sol\":4151:4175  payable(msg.sender).call */\n      0xffffffffffffffffffffffffffffffffffffffff\n      and\n        /* \"FundMe.sol\":4183:4204  address(this).balance */\n      selfbalance\n        /* \"FundMe.sol\":4151:4209  payable(msg.sender).call{value: address(this).balance}(\"\") */\n      mload(0x40)\n      tag_48\n      swap1\n      tag_49\n      jump\t// in\n    tag_48:\n      0x00\n      mload(0x40)\n      dup1\n      dup4\n      sub\n      dup2\n      dup6\n      dup8\n      gas\n      call\n      swap3\n      pop\n      pop\n      pop\n      returndatasize\n      dup1\n      0x00\n      dup2\n      eq\n      tag_52\n      jumpi\n      mload(0x40)\n      swap2\n      pop\n      and(add(returndatasize, 0x3f), not(0x1f))\n      dup3\n      add\n      0x40\n      mstore\n      returndatasize\n      dup3\n      mstore\n      returndatasize\n      0x00\n      0x20\n      dup5\n      add\n      returndatacopy\n      jump(tag_51)\n    tag_52:\n      0x60\n      swap2\n      pop\n    tag_51:\n      pop\n        /* \"FundMe.sol\":4099:4209  (bool callSuccess, /*bytes memory dataReturned*/) = payable(msg.sender).call{value: address(this).balance}(\"\") */\n      pop\n      swap1\n      pop\n        /* \"FundMe.sol\":4266:4277  callSuccess */\n      dup1\n        /* \"FundMe.sol\":4258:4293  require(callSuccess, \"Call failed\") */\n      tag_53\n      jumpi\n      mload(0x40)\n      0x08c379a000000000000000000000000000000000000000000000000000000000\n      dup2\n      mstore\n      0x04\n      add\n      tag_54\n      swap1\n      tag_55\n      jump\t// in\n    tag_54:\n      mload(0x40)\n      dup1\n      swap2\n      sub\n      swap1\n      revert\n    tag_53:\n        /* \"FundMe.sol\":2629:4310  {... */\n      pop\n        /* \"FundMe.sol\":2592:4310  function withdraw() public onlyOwner {... */\n      jump\t// out\n        /* \"FundMe.sol\":1508:1541  uint256 public minAmtInUSD = 5e18 */\n    tag_19:\n      sload(0x03)\n      dup2\n      jump\t// out\n        /* \"FundMe.sol\":1610:2586  function fund() public payable{... */\n    tag_22:\n        /* \"FundMe.sol\":2318:2329  minAmtInUSD */\n      sload(0x03)\n        /* \"FundMe.sol\":2288:2317  msg.value.getConversionRate() */\n      tag_57\n        /* \"FundMe.sol\":2288:2297  msg.value */\n      callvalue\n        /* \"FundMe.sol\":2288:2315  msg.value.getConversionRate */\n      tag_58\n        /* \"FundMe.sol\":2288:2317  msg.value.getConversionRate() */\n      jump\t// in\n    tag_57:\n        /* \"FundMe.sol\":2288:2329  msg.value.getConversionRate()>minAmtInUSD */\n      gt\n        /* \"FundMe.sol\":2280:2356  require(msg.value.getConversionRate()>minAmtInUSD, \"didn't send enough eth\") */\n      tag_59\n      jumpi\n      mload(0x40)\n      0x08c379a000000000000000000000000000000000000000000000000000000000\n      dup2\n      mstore\n      0x04\n      add\n      tag_60\n      swap1\n      tag_61\n      jump\t// in\n    tag_60:\n      mload(0x40)\n      dup1\n      swap2\n      sub\n      swap1\n      revert\n    tag_59:\n        /* \"FundMe.sol\":2413:2420  funders */\n      0x00\n        /* \"FundMe.sol\":2426:2436  msg.sender */\n      caller\n        /* \"FundMe.sol\":2413:2437  funders.push(msg.sender) */\n      swap1\n      dup1\n      0x01\n      dup2\n      sload\n      add\n      dup1\n      dup3\n      sstore\n      dup1\n      swap2\n      pop\n      pop\n      0x01\n      swap1\n      sub\n      swap1\n      0x00\n      mstore\n      keccak256(0x00, 0x20)\n      add\n      0x00\n      swap1\n      swap2\n      swap1\n      swap2\n      swap1\n      swap2\n      0x0100\n      exp\n      dup2\n      sload\n      dup2\n      0xffffffffffffffffffffffffffffffffffffffff\n      mul\n      not\n      and\n      swap1\n      dup4\n      0xffffffffffffffffffffffffffffffffffffffff\n      and\n      mul\n      or\n      swap1\n      sstore\n      pop\n        /* \"FundMe.sol\":2570:2579  msg.value */\n      callvalue\n        /* \"FundMe.sol\":2538:2556  addressToAmtFunded */\n      0x01\n        /* \"FundMe.sol\":2538:2568  addressToAmtFunded[msg.sender] */\n      0x00\n        /* \"FundMe.sol\":2557:2567  msg.sender */\n      caller\n        /* \"FundMe.sol\":2538:2568  addressToAmtFunded[msg.sender] */\n      0xffffffffffffffffffffffffffffffffffffffff\n      and\n      0xffffffffffffffffffffffffffffffffffffffff\n      and\n      dup2\n      mstore\n      0x20\n      add\n      swap1\n      dup2\n      mstore\n      0x20\n      add\n      0x00\n      keccak256\n      0x00\n        /* \"FundMe.sol\":2538:2579  addressToAmtFunded[msg.sender]+=msg.value */\n      dup3\n      dup3\n      sload\n      tag_63\n      swap2\n      swap1\n      tag_64\n      jump\t// in\n    tag_63:\n      swap3\n      pop\n      pop\n      dup2\n      swap1\n      sstore\n      pop\n        /* \"FundMe.sol\":1610:2586  function fund() public payable{... */\n      jump\t// out\n        /* \"FundMe.sol\":924:948  address[] public funders */\n    tag_27:\n      0x00\n      dup2\n      dup2\n      sload\n      dup2\n      lt\n      tag_65\n      jumpi\n      0x00\n      dup1\n      revert\n    tag_65:\n      swap1\n      0x00\n      mstore\n      keccak256(0x00, 0x20)\n      add\n      0x00\n      swap2\n      pop\n      sload\n      swap1\n      0x0100\n      exp\n      swap1\n      div\n      0xffffffffffffffffffffffffffffffffffffffff\n      and\n      dup2\n      jump\t// out\n        /* \"PriceConverter.sol\":1408:2533  function getConversionRate(uint256 ethAmount) internal view returns(uint256){... */\n    tag_58:\n        /* \"PriceConverter.sol\":1476:1483  uint256 */\n      0x00\n        /* \"PriceConverter.sol\":1494:1515  uint256 ethPriceInUsd */\n      0x00\n        /* \"PriceConverter.sol\":1518:1528  getPrice() */\n      tag_68\n        /* \"PriceConverter.sol\":1518:1526  getPrice */\n      tag_69\n        /* \"PriceConverter.sol\":1518:1528  getPrice() */\n      jump\t// in\n    tag_68:\n        /* \"PriceConverter.sol\":1494:1528  uint256 ethPriceInUsd = getPrice() */\n      swap1\n      pop\n        /* \"PriceConverter.sol\":1574:1593  uint ethAmountInUsd */\n      0x00\n        /* \"PriceConverter.sol\":1622:1626  1e18 */\n      0x0de0b6b3a7640000\n        /* \"PriceConverter.sol\":1611:1620  ethAmount */\n      dup5\n        /* \"PriceConverter.sol\":1597:1610  ethPriceInUsd */\n      dup4\n        /* \"PriceConverter.sol\":1597:1620  ethPriceInUsd*ethAmount */\n      tag_70\n      swap2\n      swap1\n      tag_71\n      jump\t// in\n    tag_70:\n        /* \"PriceConverter.sol\":1596:1626  (ethPriceInUsd*ethAmount)/1e18 */\n      tag_72\n      swap2\n      swap1\n      tag_73\n      jump\t// in\n    tag_72:\n        /* \"PriceConverter.sol\":1574:1626  uint ethAmountInUsd = (ethPriceInUsd*ethAmount)/1e18 */\n      swap1\n      pop\n        /* \"PriceConverter.sol\":2480:2494  ethAmountInUsd */\n      dup1\n        /* \"PriceConverter.sol\":2473:2494  return ethAmountInUsd */\n      swap3\n      pop\n      pop\n      pop\n        /* \"PriceConverter.sol\":1408:2533  function getConversionRate(uint256 ethAmount) internal view returns(uint256){... */\n      swap2\n      swap1\n      pop\n      jump\t// out\n        /* \"PriceConverter.sol\":444:1346  function getPrice() internal view returns(uint256){... */\n    tag_69:\n        /* \"PriceConverter.sol\":486:493  uint256 */\n      0x00\n        /* \"PriceConverter.sol\":763:794  AggregatorV3Interface priceFeed */\n      0x00\n        /* \"PriceConverter.sol\":819:861  0x694AA1769357215DE4FAC081bf1f309aDC325306 */\n      0x694aa1769357215de4fac081bf1f309adc325306\n        /* \"PriceConverter.sol\":763:862  AggregatorV3Interface priceFeed = AggregatorV3Interface(0x694AA1769357215DE4FAC081bf1f309aDC325306) */\n      swap1\n      pop\n        /* \"PriceConverter.sol\":875:888  int256 answer */\n      0x00\n        /* \"PriceConverter.sol\":895:904  priceFeed */\n      dup2\n        /* \"PriceConverter.sol\":895:920  priceFeed.latestRoundData */\n      0xffffffffffffffffffffffffffffffffffffffff\n      and\n      0xfeaf968c\n        /* \"PriceConverter.sol\":895:922  priceFeed.latestRoundData() */\n      mload(0x40)\n      dup2\n      0xffffffff\n      and\n      0xe0\n      shl\n      dup2\n      mstore\n      0x04\n      add\n      0xa0\n      mload(0x40)\n      dup1\n      dup4\n      sub\n      dup2\n      dup7\n      gas\n      staticcall\n      iszero\n      dup1\n      iszero\n      tag_76\n      jumpi\n      returndatacopy(0x00, 0x00, returndatasize)\n      revert(0x00, returndatasize)\n    tag_76:\n      pop\n      pop\n      pop\n      pop\n      mload(0x40)\n      returndatasize\n      not(0x1f)\n      0x1f\n      dup3\n      add\n      and\n      dup3\n      add\n      dup1\n      0x40\n      mstore\n      pop\n      dup2\n      add\n      swap1\n      tag_77\n      swap2\n      swap1\n      tag_78\n      jump\t// in\n    tag_77:\n        /* \"PriceConverter.sol\":872:922  (, int256 answer,,,) = priceFeed.latestRoundData() */\n      pop\n      pop\n      pop\n      swap2\n      pop\n      pop\n        /* \"PriceConverter.sol\":1334:1338  1e10 */\n      0x02540be400\n        /* \"PriceConverter.sol\":1327:1333  answer */\n      dup2\n        /* \"PriceConverter.sol\":1327:1338  answer*1e10 */\n      tag_79\n      swap2\n      swap1\n      tag_80\n      jump\t// in\n    tag_79:\n        /* \"PriceConverter.sol\":1312:1339  return uint256(answer*1e10) */\n      swap3\n      pop\n      pop\n      pop\n        /* \"PriceConverter.sol\":444:1346  function getPrice() internal view returns(uint256){... */\n      swap1\n      jump\t// out\n    tag_47:\n      dup3\n      dup1\n      sload\n      dup3\n      dup3\n      sstore\n      swap1\n      0x00\n      mstore\n      keccak256(0x00, 0x20)\n      swap1\n      dup2\n      add\n      swap3\n      dup3\n      iszero\n      tag_81\n      jumpi\n      swap2\n      0x20\n      mul\n      dup3\n      add\n    tag_82:\n      dup3\n      dup2\n      gt\n      iszero\n      tag_83\n      jumpi\n      dup3\n      mload\n      dup3\n      exp(0x0100, 0x00)\n      dup2\n      sload\n      dup2\n      0xffffffffffffffffffffffffffffffffffffffff\n      mul\n      not\n      and\n      swap1\n      dup4\n      0xffffffffffffffffffffffffffffffffffffffff\n      and\n      mul\n      or\n      swap1\n      sstore\n      pop\n      swap2\n      0x20\n      add\n      swap2\n      swap1\n      0x01\n      add\n      swap1\n      jump(tag_82)\n    tag_83:\n    tag_81:\n      pop\n      swap1\n      pop\n      tag_84\n      swap2\n      swap1\n      tag_85\n      jump\t// in\n    tag_84:\n      pop\n      swap1\n      jump\t// out\n    tag_85:\n    tag_86:\n      dup1\n      dup3\n      gt\n      iszero\n      tag_87\n      jumpi\n      0x00\n      dup2\n      0x00\n      swap1\n      sstore\n      pop\n      0x01\n      add\n      jump(tag_86)\n    tag_87:\n      pop\n      swap1\n      jump\t// out\n        /* \"#utility.yul\":88:205   */\n    tag_89:\n        /* \"#utility.yul\":197:198   */\n      0x00\n        /* \"#utility.yul\":194:195   */\n      0x00\n        /* \"#utility.yul\":187:199   */\n      revert\n        /* \"#utility.yul\":334:460   */\n    tag_91:\n        /* \"#utility.yul\":371:378   */\n      0x00\n        /* \"#utility.yul\":411:453   */\n      0xffffffffffffffffffffffffffffffffffffffff\n        /* \"#utility.yul\":404:409   */\n      dup3\n        /* \"#utility.yul\":400:454   */\n      and\n        /* \"#utility.yul\":389:454   */\n      swap1\n      pop\n        /* \"#utility.yul\":334:460   */\n      swap2\n      swap1\n      pop\n      jump\t// out\n        /* \"#utility.yul\":466:562   */\n    tag_92:\n        /* \"#utility.yul\":503:510   */\n      0x00\n        /* \"#utility.yul\":532:556   */\n      tag_125\n        /* \"#utility.yul\":550:555   */\n      dup3\n        /* \"#utility.yul\":532:556   */\n      tag_91\n      jump\t// in\n    tag_125:\n        /* \"#utility.yul\":521:556   */\n      swap1\n      pop\n        /* \"#utility.yul\":466:562   */\n      swap2\n      swap1\n      pop\n      jump\t// out\n        /* \"#utility.yul\":568:690   */\n    tag_93:\n        /* \"#utility.yul\":641:665   */\n      tag_127\n        /* \"#utility.yul\":659:664   */\n      dup2\n        /* \"#utility.yul\":641:665   */\n      tag_92\n      jump\t// in\n    tag_127:\n        /* \"#utility.yul\":634:639   */\n      dup2\n        /* \"#utility.yul\":631:666   */\n      eq\n        /* \"#utility.yul\":621:684   */\n      tag_128\n      jumpi\n        /* \"#utility.yul\":680:681   */\n      0x00\n        /* \"#utility.yul\":677:678   */\n      0x00\n        /* \"#utility.yul\":670:682   */\n      revert\n        /* \"#utility.yul\":621:684   */\n    tag_128:\n        /* \"#utility.yul\":568:690   */\n      pop\n      jump\t// out\n        /* \"#utility.yul\":696:835   */\n    tag_94:\n        /* \"#utility.yul\":742:747   */\n      0x00\n        /* \"#utility.yul\":780:786   */\n      dup2\n        /* \"#utility.yul\":767:787   */\n      calldataload\n        /* \"#utility.yul\":758:787   */\n      swap1\n      pop\n        /* \"#utility.yul\":796:829   */\n      tag_130\n        /* \"#utility.yul\":823:828   */\n      dup2\n        /* \"#utility.yul\":796:829   */\n      tag_93\n      jump\t// in\n    tag_130:\n        /* \"#utility.yul\":696:835   */\n      swap3\n      swap2\n      pop\n      pop\n      jump\t// out\n        /* \"#utility.yul\":841:1170   */\n    tag_10:\n        /* \"#utility.yul\":900:906   */\n      0x00\n        /* \"#utility.yul\":949:951   */\n      0x20\n        /* \"#utility.yul\":937:946   */\n      dup3\n        /* \"#utility.yul\":928:935   */\n      dup5\n        /* \"#utility.yul\":924:947   */\n      sub\n        /* \"#utility.yul\":920:952   */\n      slt\n        /* \"#utility.yul\":917:1036   */\n      iszero\n      tag_132\n      jumpi\n        /* \"#utility.yul\":955:1034   */\n      tag_133\n      tag_89\n      jump\t// in\n    tag_133:\n        /* \"#utility.yul\":917:1036   */\n    tag_132:\n        /* \"#utility.yul\":1075:1076   */\n      0x00\n        /* \"#utility.yul\":1100:1153   */\n      tag_134\n        /* \"#utility.yul\":1145:1152   */\n      dup5\n        /* \"#utility.yul\":1136:1142   */\n      dup3\n        /* \"#utility.yul\":1125:1134   */\n      dup6\n        /* \"#utility.yul\":1121:1143   */\n      add\n        /* \"#utility.yul\":1100:1153   */\n      tag_94\n      jump\t// in\n    tag_134:\n        /* \"#utility.yul\":1090:1153   */\n      swap2\n      pop\n        /* \"#utility.yul\":1046:1163   */\n      pop\n        /* \"#utility.yul\":841:1170   */\n      swap3\n      swap2\n      pop\n      pop\n      jump\t// out\n        /* \"#utility.yul\":1176:1253   */\n    tag_95:\n        /* \"#utility.yul\":1213:1220   */\n      0x00\n        /* \"#utility.yul\":1242:1247   */\n      dup2\n        /* \"#utility.yul\":1231:1247   */\n      swap1\n      pop\n        /* \"#utility.yul\":1176:1253   */\n      swap2\n      swap1\n      pop\n      jump\t// out\n        /* \"#utility.yul\":1259:1377   */\n    tag_96:\n        /* \"#utility.yul\":1346:1370   */\n      tag_137\n        /* \"#utility.yul\":1364:1369   */\n      dup2\n        /* \"#utility.yul\":1346:1370   */\n      tag_95\n      jump\t// in\n    tag_137:\n        /* \"#utility.yul\":1341:1344   */\n      dup3\n        /* \"#utility.yul\":1334:1371   */\n      mstore\n        /* \"#utility.yul\":1259:1377   */\n      pop\n      pop\n      jump\t// out\n        /* \"#utility.yul\":1383:1605   */\n    tag_13:\n        /* \"#utility.yul\":1476:1480   */\n      0x00\n        /* \"#utility.yul\":1514:1516   */\n      0x20\n        /* \"#utility.yul\":1503:1512   */\n      dup3\n        /* \"#utility.yul\":1499:1517   */\n      add\n        /* \"#utility.yul\":1491:1517   */\n      swap1\n      pop\n        /* \"#utility.yul\":1527:1598   */\n      tag_139\n        /* \"#utility.yul\":1595:1596   */\n      0x00\n        /* \"#utility.yul\":1584:1593   */\n      dup4\n        /* \"#utility.yul\":1580:1597   */\n      add\n        /* \"#utility.yul\":1571:1577   */\n      dup5\n        /* \"#utility.yul\":1527:1598   */\n      tag_96\n      jump\t// in\n    tag_139:\n        /* \"#utility.yul\":1383:1605   */\n      swap3\n      swap2\n      pop\n      pop\n      jump\t// out\n        /* \"#utility.yul\":1611:1733   */\n    tag_97:\n        /* \"#utility.yul\":1684:1708   */\n      tag_141\n        /* \"#utility.yul\":1702:1707   */\n      dup2\n        /* \"#utility.yul\":1684:1708   */\n      tag_95\n      jump\t// in\n    tag_141:\n        /* \"#utility.yul\":1677:1682   */\n      dup2\n        /* \"#utility.yul\":1674:1709   */\n      eq\n        /* \"#utility.yul\":1664:1727   */\n      tag_142\n      jumpi\n        /* \"#utility.yul\":1723:1724   */\n      0x00\n        /* \"#utility.yul\":1720:1721   */\n      0x00\n        /* \"#utility.yul\":1713:1725   */\n      revert\n        /* \"#utility.yul\":1664:1727   */\n    tag_142:\n        /* \"#utility.yul\":1611:1733   */\n      pop\n      jump\t// out\n        /* \"#utility.yul\":1739:1878   */\n    tag_98:\n        /* \"#utility.yul\":1785:1790   */\n      0x00\n        /* \"#utility.yul\":1823:1829   */\n      dup2\n        /* \"#utility.yul\":1810:1830   */\n      calldataload\n        /* \"#utility.yul\":1801:1830   */\n      swap1\n      pop\n        /* \"#utility.yul\":1839:1872   */\n      tag_144\n        /* \"#utility.yul\":1866:1871   */\n      dup2\n        /* \"#utility.yul\":1839:1872   */\n      tag_97\n      jump\t// in\n    tag_144:\n        /* \"#utility.yul\":1739:1878   */\n      swap3\n      swap2\n      pop\n      pop\n      jump\t// out\n        /* \"#utility.yul\":1884:2213   */\n    tag_26:\n        /* \"#utility.yul\":1943:1949   */\n      0x00\n        /* \"#utility.yul\":1992:1994   */\n      0x20\n        /* \"#utility.yul\":1980:1989   */\n      dup3\n        /* \"#utility.yul\":1971:1978   */\n      dup5\n        /* \"#utility.yul\":1967:1990   */\n      sub\n        /* \"#utility.yul\":1963:1995   */\n      slt\n        /* \"#utility.yul\":1960:2079   */\n      iszero\n      tag_146\n      jumpi\n        /* \"#utility.yul\":1998:2077   */\n      tag_147\n      tag_89\n      jump\t// in\n    tag_147:\n        /* \"#utility.yul\":1960:2079   */\n    tag_146:\n        /* \"#utility.yul\":2118:2119   */\n      0x00\n        /* \"#utility.yul\":2143:2196   */\n      tag_148\n        /* \"#utility.yul\":2188:2195   */\n      dup5\n        /* \"#utility.yul\":2179:2185   */\n      dup3\n        /* \"#utility.yul\":2168:2177   */\n      dup6\n        /* \"#utility.yul\":2164:2186   */\n      add\n        /* \"#utility.yul\":2143:2196   */\n      tag_98\n      jump\t// in\n    tag_148:\n        /* \"#utility.yul\":2133:2196   */\n      swap2\n      pop\n        /* \"#utility.yul\":2089:2206   */\n      pop\n        /* \"#utility.yul\":1884:2213   */\n      swap3\n      swap2\n      pop\n      pop\n      jump\t// out\n        /* \"#utility.yul\":2219:2337   */\n    tag_99:\n        /* \"#utility.yul\":2306:2330   */\n      tag_150\n        /* \"#utility.yul\":2324:2329   */\n      dup2\n        /* \"#utility.yul\":2306:2330   */\n      tag_92\n      jump\t// in\n    tag_150:\n        /* \"#utility.yul\":2301:2304   */\n      dup3\n        /* \"#utility.yul\":2294:2331   */\n      mstore\n        /* \"#utility.yul\":2219:2337   */\n      pop\n      pop\n      jump\t// out\n        /* \"#utility.yul\":2343:2565   */\n    tag_29:\n        /* \"#utility.yul\":2436:2440   */\n      0x00\n        /* \"#utility.yul\":2474:2476   */\n      0x20\n        /* \"#utility.yul\":2463:2472   */\n      dup3\n        /* \"#utility.yul\":2459:2477   */\n      add\n        /* \"#utility.yul\":2451:2477   */\n      swap1\n      pop\n        /* \"#utility.yul\":2487:2558   */\n      tag_152\n        /* \"#utility.yul\":2555:2556   */\n      0x00\n        /* \"#utility.yul\":2544:2553   */\n      dup4\n        /* \"#utility.yul\":2540:2557   */\n      add\n        /* \"#utility.yul\":2531:2537   */\n      dup5\n        /* \"#utility.yul\":2487:2558   */\n      tag_99\n      jump\t// in\n    tag_152:\n        /* \"#utility.yul\":2343:2565   */\n      swap3\n      swap2\n      pop\n      pop\n      jump\t// out\n        /* \"#utility.yul\":2571:2740   */\n    tag_100:\n        /* \"#utility.yul\":2655:2666   */\n      0x00\n        /* \"#utility.yul\":2689:2695   */\n      dup3\n        /* \"#utility.yul\":2684:2687   */\n      dup3\n        /* \"#utility.yul\":2677:2696   */\n      mstore\n        /* \"#utility.yul\":2729:2733   */\n      0x20\n        /* \"#utility.yul\":2724:2727   */\n      dup3\n        /* \"#utility.yul\":2720:2734   */\n      add\n        /* \"#utility.yul\":2705:2734   */\n      swap1\n      pop\n        /* \"#utility.yul\":2571:2740   */\n      swap3\n      swap2\n      pop\n      pop\n      jump\t// out\n        /* \"#utility.yul\":2746:2918   */\n    tag_101:\n        /* \"#utility.yul\":2886:2910   */\n      0x4f6e6c79206f776e65722063616e206163636573732e00000000000000000000\n        /* \"#utility.yul\":2882:2883   */\n      0x00\n        /* \"#utility.yul\":2874:2880   */\n      dup3\n        /* \"#utility.yul\":2870:2884   */\n      add\n        /* \"#utility.yul\":2863:2911   */\n      mstore\n        /* \"#utility.yul\":2746:2918   */\n      pop\n      jump\t// out\n        /* \"#utility.yul\":2924:3290   */\n    tag_102:\n        /* \"#utility.yul\":3066:3069   */\n      0x00\n        /* \"#utility.yul\":3087:3154   */\n      tag_156\n        /* \"#utility.yul\":3151:3153   */\n      0x16\n        /* \"#utility.yul\":3146:3149   */\n      dup4\n        /* \"#utility.yul\":3087:3154   */\n      tag_100\n      jump\t// in\n    tag_156:\n        /* \"#utility.yul\":3080:3154   */\n      swap2\n      pop\n        /* \"#utility.yul\":3163:3256   */\n      tag_157\n        /* \"#utility.yul\":3252:3255   */\n      dup3\n        /* \"#utility.yul\":3163:3256   */\n      tag_101\n      jump\t// in\n    tag_157:\n        /* \"#utility.yul\":3281:3283   */\n      0x20\n        /* \"#utility.yul\":3276:3279   */\n      dup3\n        /* \"#utility.yul\":3272:3284   */\n      add\n        /* \"#utility.yul\":3265:3284   */\n      swap1\n      pop\n        /* \"#utility.yul\":2924:3290   */\n      swap2\n      swap1\n      pop\n      jump\t// out\n        /* \"#utility.yul\":3296:3715   */\n    tag_33:\n        /* \"#utility.yul\":3462:3466   */\n      0x00\n        /* \"#utility.yul\":3500:3502   */\n      0x20\n        /* \"#utility.yul\":3489:3498   */\n      dup3\n        /* \"#utility.yul\":3485:3503   */\n      add\n        /* \"#utility.yul\":3477:3503   */\n      swap1\n      pop\n        /* \"#utility.yul\":3549:3558   */\n      dup2\n        /* \"#utility.yul\":3543:3547   */\n      dup2\n        /* \"#utility.yul\":3539:3559   */\n      sub\n        /* \"#utility.yul\":3535:3536   */\n      0x00\n        /* \"#utility.yul\":3524:3533   */\n      dup4\n        /* \"#utility.yul\":3520:3537   */\n      add\n        /* \"#utility.yul\":3513:3560   */\n      mstore\n        /* \"#utility.yul\":3577:3708   */\n      tag_159\n        /* \"#utility.yul\":3703:3707   */\n      dup2\n        /* \"#utility.yul\":3577:3708   */\n      tag_102\n      jump\t// in\n    tag_159:\n        /* \"#utility.yul\":3569:3708   */\n      swap1\n      pop\n        /* \"#utility.yul\":3296:3715   */\n      swap2\n      swap1\n      pop\n      jump\t// out\n        /* \"#utility.yul\":3721:3901   */\n    tag_40:\n        /* \"#utility.yul\":3769:3846   */\n      0x4e487b7100000000000000000000000000000000000000000000000000000000\n        /* \"#utility.yul\":3766:3767   */\n      0x00\n        /* \"#utility.yul\":3759:3847   */\n      mstore\n        /* \"#utility.yul\":3866:3870   */\n      0x32\n        /* \"#utility.yul\":3863:3864   */\n      0x04\n        /* \"#utility.yul\":3856:3871   */\n      mstore\n        /* \"#utility.yul\":3890:3894   */\n      0x24\n        /* \"#utility.yul\":3887:3888   */\n      0x00\n        /* \"#utility.yul\":3880:3895   */\n      revert\n        /* \"#utility.yul\":3907:4087   */\n    tag_44:\n        /* \"#utility.yul\":3955:4032   */\n      0x4e487b7100000000000000000000000000000000000000000000000000000000\n        /* \"#utility.yul\":3952:3953   */\n      0x00\n        /* \"#utility.yul\":3945:4033   */\n      mstore\n        /* \"#utility.yul\":4052:4056   */\n      0x41\n        /* \"#utility.yul\":4049:4050   */\n      0x04\n        /* \"#utility.yul\":4042:4057   */\n      mstore\n        /* \"#utility.yul\":4076:4080   */\n      0x24\n        /* \"#utility.yul\":4073:4074   */\n      0x00\n        /* \"#utility.yul\":4066:4081   */\n      revert\n        /* \"#utility.yul\":4093:4240   */\n    tag_103:\n        /* \"#utility.yul\":4194:4205   */\n      0x00\n        /* \"#utility.yul\":4231:4234   */\n      dup2\n        /* \"#utility.yul\":4216:4234   */\n      swap1\n      pop\n        /* \"#utility.yul\":4093:4240   */\n      swap3\n      swap2\n      pop\n      pop\n      jump\t// out\n        /* \"#utility.yul\":4246:4360   */\n    tag_104:\n      pop\n      jump\t// out\n        /* \"#utility.yul\":4366:4764   */\n    tag_105:\n        /* \"#utility.yul\":4525:4528   */\n      0x00\n        /* \"#utility.yul\":4546:4629   */\n      tag_165\n        /* \"#utility.yul\":4627:4628   */\n      0x00\n        /* \"#utility.yul\":4622:4625   */\n      dup4\n        /* \"#utility.yul\":4546:4629   */\n      tag_103\n      jump\t// in\n    tag_165:\n        /* \"#utility.yul\":4539:4629   */\n      swap2\n      pop\n        /* \"#utility.yul\":4638:4731   */\n      tag_166\n        /* \"#utility.yul\":4727:4730   */\n      dup3\n        /* \"#utility.yul\":4638:4731   */\n      tag_104\n      jump\t// in\n    tag_166:\n        /* \"#utility.yul\":4756:4757   */\n      0x00\n        /* \"#utility.yul\":4751:4754   */\n      dup3\n        /* \"#utility.yul\":4747:4758   */\n      add\n        /* \"#utility.yul\":4740:4758   */\n      swap1\n      pop\n        /* \"#utility.yul\":4366:4764   */\n      swap2\n      swap1\n      pop\n      jump\t// out\n        /* \"#utility.yul\":4770:5149   */\n    tag_49:\n        /* \"#utility.yul\":4954:4957   */\n      0x00\n        /* \"#utility.yul\":4976:5123   */\n      tag_168\n        /* \"#utility.yul\":5119:5122   */\n      dup3\n        /* \"#utility.yul\":4976:5123   */\n      tag_105\n      jump\t// in\n    tag_168:\n        /* \"#utility.yul\":4969:5123   */\n      swap2\n      pop\n        /* \"#utility.yul\":5140:5143   */\n      dup2\n        /* \"#utility.yul\":5133:5143   */\n      swap1\n      pop\n        /* \"#utility.yul\":4770:5149   */\n      swap2\n      swap1\n      pop\n      jump\t// out\n        /* \"#utility.yul\":5155:5316   */\n    tag_106:\n        /* \"#utility.yul\":5295:5308   */\n      0x43616c6c206661696c6564000000000000000000000000000000000000000000\n        /* \"#utility.yul\":5291:5292   */\n      0x00\n        /* \"#utility.yul\":5283:5289   */\n      dup3\n        /* \"#utility.yul\":5279:5293   */\n      add\n        /* \"#utility.yul\":5272:5309   */\n      mstore\n        /* \"#utility.yul\":5155:5316   */\n      pop\n      jump\t// out\n        /* \"#utility.yul\":5322:5688   */\n    tag_107:\n        /* \"#utility.yul\":5464:5467   */\n      0x00\n        /* \"#utility.yul\":5485:5552   */\n      tag_171\n        /* \"#utility.yul\":5549:5551   */\n      0x0b\n        /* \"#utility.yul\":5544:5547   */\n      dup4\n        /* \"#utility.yul\":5485:5552   */\n      tag_100\n      jump\t// in\n    tag_171:\n        /* \"#utility.yul\":5478:5552   */\n      swap2\n      pop\n        /* \"#utility.yul\":5561:5654   */\n      tag_172\n        /* \"#utility.yul\":5650:5653   */\n      dup3\n        /* \"#utility.yul\":5561:5654   */\n      tag_106\n      jump\t// in\n    tag_172:\n        /* \"#utility.yul\":5679:5681   */\n      0x20\n        /* \"#utility.yul\":5674:5677   */\n      dup3\n        /* \"#utility.yul\":5670:5682   */\n      add\n        /* \"#utility.yul\":5663:5682   */\n      swap1\n      pop\n        /* \"#utility.yul\":5322:5688   */\n      swap2\n      swap1\n      pop\n      jump\t// out\n        /* \"#utility.yul\":5694:6113   */\n    tag_55:\n        /* \"#utility.yul\":5860:5864   */\n      0x00\n        /* \"#utility.yul\":5898:5900   */\n      0x20\n        /* \"#utility.yul\":5887:5896   */\n      dup3\n        /* \"#utility.yul\":5883:5901   */\n      add\n        /* \"#utility.yul\":5875:5901   */\n      swap1\n      pop\n        /* \"#utility.yul\":5947:5956   */\n      dup2\n        /* \"#utility.yul\":5941:5945   */\n      dup2\n        /* \"#utility.yul\":5937:5957   */\n      sub\n        /* \"#utility.yul\":5933:5934   */\n      0x00\n        /* \"#utility.yul\":5922:5931   */\n      dup4\n        /* \"#utility.yul\":5918:5935   */\n      add\n        /* \"#utility.yul\":5911:5958   */\n      mstore\n        /* \"#utility.yul\":5975:6106   */\n      tag_174\n        /* \"#utility.yul\":6101:6105   */\n      dup2\n        /* \"#utility.yul\":5975:6106   */\n      tag_107\n      jump\t// in\n    tag_174:\n        /* \"#utility.yul\":5967:6106   */\n      swap1\n      pop\n        /* \"#utility.yul\":5694:6113   */\n      swap2\n      swap1\n      pop\n      jump\t// out\n        /* \"#utility.yul\":6119:6291   */\n    tag_108:\n        /* \"#utility.yul\":6259:6283   */\n      0x6469646e27742073656e6420656e6f7567682065746800000000000000000000\n        /* \"#utility.yul\":6255:6256   */\n      0x00\n        /* \"#utility.yul\":6247:6253   */\n      dup3\n        /* \"#utility.yul\":6243:6257   */\n      add\n        /* \"#utility.yul\":6236:6284   */\n      mstore\n        /* \"#utility.yul\":6119:6291   */\n      pop\n      jump\t// out\n        /* \"#utility.yul\":6297:6663   */\n    tag_109:\n        /* \"#utility.yul\":6439:6442   */\n      0x00\n        /* \"#utility.yul\":6460:6527   */\n      tag_177\n        /* \"#utility.yul\":6524:6526   */\n      0x16\n        /* \"#utility.yul\":6519:6522   */\n      dup4\n        /* \"#utility.yul\":6460:6527   */\n      tag_100\n      jump\t// in\n    tag_177:\n        /* \"#utility.yul\":6453:6527   */\n      swap2\n      pop\n        /* \"#utility.yul\":6536:6629   */\n      tag_178\n        /* \"#utility.yul\":6625:6628   */\n      dup3\n        /* \"#utility.yul\":6536:6629   */\n      tag_108\n      jump\t// in\n    tag_178:\n        /* \"#utility.yul\":6654:6656   */\n      0x20\n        /* \"#utility.yul\":6649:6652   */\n      dup3\n        /* \"#utility.yul\":6645:6657   */\n      add\n        /* \"#utility.yul\":6638:6657   */\n      swap1\n      pop\n        /* \"#utility.yul\":6297:6663   */\n      swap2\n      swap1\n      pop\n      jump\t// out\n        /* \"#utility.yul\":6669:7088   */\n    tag_61:\n        /* \"#utility.yul\":6835:6839   */\n      0x00\n        /* \"#utility.yul\":6873:6875   */\n      0x20\n        /* \"#utility.yul\":6862:6871   */\n      dup3\n        /* \"#utility.yul\":6858:6876   */\n      add\n        /* \"#utility.yul\":6850:6876   */\n      swap1\n      pop\n        /* \"#utility.yul\":6922:6931   */\n      dup2\n        /* \"#utility.yul\":6916:6920   */\n      dup2\n        /* \"#utility.yul\":6912:6932   */\n      sub\n        /* \"#utility.yul\":6908:6909   */\n      0x00\n        /* \"#utility.yul\":6897:6906   */\n      dup4\n        /* \"#utility.yul\":6893:6910   */\n      add\n        /* \"#utility.yul\":6886:6933   */\n      mstore\n        /* \"#utility.yul\":6950:7081   */\n      tag_180\n        /* \"#utility.yul\":7076:7080   */\n      dup2\n        /* \"#utility.yul\":6950:7081   */\n      tag_109\n      jump\t// in\n    tag_180:\n        /* \"#utility.yul\":6942:7081   */\n      swap1\n      pop\n        /* \"#utility.yul\":6669:7088   */\n      swap2\n      swap1\n      pop\n      jump\t// out\n        /* \"#utility.yul\":7094:7274   */\n    tag_110:\n        /* \"#utility.yul\":7142:7219   */\n      0x4e487b7100000000000000000000000000000000000000000000000000000000\n        /* \"#utility.yul\":7139:7140   */\n      0x00\n        /* \"#utility.yul\":7132:7220   */\n      mstore\n        /* \"#utility.yul\":7239:7243   */\n      0x11\n        /* \"#utility.yul\":7236:7237   */\n      0x04\n        /* \"#utility.yul\":7229:7244   */\n      mstore\n        /* \"#utility.yul\":7263:7267   */\n      0x24\n        /* \"#utility.yul\":7260:7261   */\n      0x00\n        /* \"#utility.yul\":7253:7268   */\n      revert\n        /* \"#utility.yul\":7280:7471   */\n    tag_64:\n        /* \"#utility.yul\":7320:7323   */\n      0x00\n        /* \"#utility.yul\":7339:7359   */\n      tag_183\n        /* \"#utility.yul\":7357:7358   */\n      dup3\n        /* \"#utility.yul\":7339:7359   */\n      tag_95\n      jump\t// in\n    tag_183:\n        /* \"#utility.yul\":7334:7359   */\n      swap2\n      pop\n        /* \"#utility.yul\":7373:7393   */\n      tag_184\n        /* \"#utility.yul\":7391:7392   */\n      dup4\n        /* \"#utility.yul\":7373:7393   */\n      tag_95\n      jump\t// in\n    tag_184:\n        /* \"#utility.yul\":7368:7393   */\n      swap3\n      pop\n        /* \"#utility.yul\":7416:7417   */\n      dup3\n        /* \"#utility.yul\":7413:7414   */\n      dup3\n        /* \"#utility.yul\":7409:7418   */\n      add\n        /* \"#utility.yul\":7402:7418   */\n      swap1\n      pop\n        /* \"#utility.yul\":7437:7440   */\n      dup1\n        /* \"#utility.yul\":7434:7435   */\n      dup3\n        /* \"#utility.yul\":7431:7441   */\n      gt\n        /* \"#utility.yul\":7428:7464   */\n      iszero\n      tag_185\n      jumpi\n        /* \"#utility.yul\":7444:7462   */\n      tag_186\n      tag_110\n      jump\t// in\n    tag_186:\n        /* \"#utility.yul\":7428:7464   */\n    tag_185:\n        /* \"#utility.yul\":7280:7471   */\n      swap3\n      swap2\n      pop\n      pop\n      jump\t// out\n        /* \"#utility.yul\":7477:7887   */\n    tag_71:\n        /* \"#utility.yul\":7517:7524   */\n      0x00\n        /* \"#utility.yul\":7540:7560   */\n      tag_188\n        /* \"#utility.yul\":7558:7559   */\n      dup3\n        /* \"#utility.yul\":7540:7560   */\n      tag_95\n      jump\t// in\n    tag_188:\n        /* \"#utility.yul\":7535:7560   */\n      swap2\n      pop\n        /* \"#utility.yul\":7574:7594   */\n      tag_189\n        /* \"#utility.yul\":7592:7593   */\n      dup4\n        /* \"#utility.yul\":7574:7594   */\n      tag_95\n      jump\t// in\n    tag_189:\n        /* \"#utility.yul\":7569:7594   */\n      swap3\n      pop\n        /* \"#utility.yul\":7629:7630   */\n      dup3\n        /* \"#utility.yul\":7626:7627   */\n      dup3\n        /* \"#utility.yul\":7622:7631   */\n      mul\n        /* \"#utility.yul\":7651:7681   */\n      tag_190\n        /* \"#utility.yul\":7669:7680   */\n      dup2\n        /* \"#utility.yul\":7651:7681   */\n      tag_95\n      jump\t// in\n    tag_190:\n        /* \"#utility.yul\":7640:7681   */\n      swap2\n      pop\n        /* \"#utility.yul\":7830:7831   */\n      dup3\n        /* \"#utility.yul\":7821:7828   */\n      dup3\n        /* \"#utility.yul\":7817:7832   */\n      div\n        /* \"#utility.yul\":7814:7815   */\n      dup5\n        /* \"#utility.yul\":7811:7833   */\n      eq\n        /* \"#utility.yul\":7791:7792   */\n      dup4\n        /* \"#utility.yul\":7784:7793   */\n      iszero\n        /* \"#utility.yul\":7764:7847   */\n      or\n        /* \"#utility.yul\":7741:7880   */\n      tag_191\n      jumpi\n        /* \"#utility.yul\":7860:7878   */\n      tag_192\n      tag_110\n      jump\t// in\n    tag_192:\n        /* \"#utility.yul\":7741:7880   */\n    tag_191:\n        /* \"#utility.yul\":7525:7887   */\n      pop\n        /* \"#utility.yul\":7477:7887   */\n      swap3\n      swap2\n      pop\n      pop\n      jump\t// out\n        /* \"#utility.yul\":7893:8073   */\n    tag_111:\n        /* \"#utility.yul\":7941:8018   */\n      0x4e487b7100000000000000000000000000000000000000000000000000000000\n        /* \"#utility.yul\":7938:7939   */\n      0x00\n        /* \"#utility.yul\":7931:8019   */\n      mstore\n        /* \"#utility.yul\":8038:8042   */\n      0x12\n        /* \"#utility.yul\":8035:8036   */\n      0x04\n        /* \"#utility.yul\":8028:8043   */\n      mstore\n        /* \"#utility.yul\":8062:8066   */\n      0x24\n        /* \"#utility.yul\":8059:8060   */\n      0x00\n        /* \"#utility.yul\":8052:8067   */\n      revert\n        /* \"#utility.yul\":8079:8264   */\n    tag_73:\n        /* \"#utility.yul\":8119:8120   */\n      0x00\n        /* \"#utility.yul\":8136:8156   */\n      tag_195\n        /* \"#utility.yul\":8154:8155   */\n      dup3\n        /* \"#utility.yul\":8136:8156   */\n      tag_95\n      jump\t// in\n    tag_195:\n        /* \"#utility.yul\":8131:8156   */\n      swap2\n      pop\n        /* \"#utility.yul\":8170:8190   */\n      tag_196\n        /* \"#utility.yul\":8188:8189   */\n      dup4\n        /* \"#utility.yul\":8170:8190   */\n      tag_95\n      jump\t// in\n    tag_196:\n        /* \"#utility.yul\":8165:8190   */\n      swap3\n      pop\n        /* \"#utility.yul\":8209:8210   */\n      dup3\n        /* \"#utility.yul\":8199:8234   */\n      tag_197\n      jumpi\n        /* \"#utility.yul\":8214:8232   */\n      tag_198\n      tag_111\n      jump\t// in\n    tag_198:\n        /* \"#utility.yul\":8199:8234   */\n    tag_197:\n        /* \"#utility.yul\":8256:8257   */\n      dup3\n        /* \"#utility.yul\":8253:8254   */\n      dup3\n        /* \"#utility.yul\":8249:8258   */\n      div\n        /* \"#utility.yul\":8244:8258   */\n      swap1\n      pop\n        /* \"#utility.yul\":8079:8264   */\n      swap3\n      swap2\n      pop\n      pop\n      jump\t// out\n        /* \"#utility.yul\":8270:8375   */\n    tag_112:\n        /* \"#utility.yul\":8306:8313   */\n      0x00\n        /* \"#utility.yul\":8346:8368   */\n      0xffffffffffffffffffff\n        /* \"#utility.yul\":8339:8344   */\n      dup3\n        /* \"#utility.yul\":8335:8369   */\n      and\n        /* \"#utility.yul\":8324:8369   */\n      swap1\n      pop\n        /* \"#utility.yul\":8270:8375   */\n      swap2\n      swap1\n      pop\n      jump\t// out\n        /* \"#utility.yul\":8381:8501   */\n    tag_113:\n        /* \"#utility.yul\":8453:8476   */\n      tag_201\n        /* \"#utility.yul\":8470:8475   */\n      dup2\n        /* \"#utility.yul\":8453:8476   */\n      tag_112\n      jump\t// in\n    tag_201:\n        /* \"#utility.yul\":8446:8451   */\n      dup2\n        /* \"#utility.yul\":8443:8477   */\n      eq\n        /* \"#utility.yul\":8433:8495   */\n      tag_202\n      jumpi\n        /* \"#utility.yul\":8491:8492   */\n      0x00\n        /* \"#utility.yul\":8488:8489   */\n      0x00\n        /* \"#utility.yul\":8481:8493   */\n      revert\n        /* \"#utility.yul\":8433:8495   */\n    tag_202:\n        /* \"#utility.yul\":8381:8501   */\n      pop\n      jump\t// out\n        /* \"#utility.yul\":8507:8648   */\n    tag_114:\n        /* \"#utility.yul\":8563:8568   */\n      0x00\n        /* \"#utility.yul\":8594:8600   */\n      dup2\n        /* \"#utility.yul\":8588:8601   */\n      mload\n        /* \"#utility.yul\":8579:8601   */\n      swap1\n      pop\n        /* \"#utility.yul\":8610:8642   */\n      tag_204\n        /* \"#utility.yul\":8636:8641   */\n      dup2\n        /* \"#utility.yul\":8610:8642   */\n      tag_113\n      jump\t// in\n    tag_204:\n        /* \"#utility.yul\":8507:8648   */\n      swap3\n      swap2\n      pop\n      pop\n      jump\t// out\n        /* \"#utility.yul\":8654:8730   */\n    tag_115:\n        /* \"#utility.yul\":8690:8697   */\n      0x00\n        /* \"#utility.yul\":8719:8724   */\n      dup2\n        /* \"#utility.yul\":8708:8724   */\n      swap1\n      pop\n        /* \"#utility.yul\":8654:8730   */\n      swap2\n      swap1\n      pop\n      jump\t// out\n        /* \"#utility.yul\":8736:8856   */\n    tag_116:\n        /* \"#utility.yul\":8808:8831   */\n      tag_207\n        /* \"#utility.yul\":8825:8830   */\n      dup2\n        /* \"#utility.yul\":8808:8831   */\n      tag_115\n      jump\t// in\n    tag_207:\n        /* \"#utility.yul\":8801:8806   */\n      dup2\n        /* \"#utility.yul\":8798:8832   */\n      eq\n        /* \"#utility.yul\":8788:8850   */\n      tag_208\n      jumpi\n        /* \"#utility.yul\":8846:8847   */\n      0x00\n        /* \"#utility.yul\":8843:8844   */\n      0x00\n        /* \"#utility.yul\":8836:8848   */\n      revert\n        /* \"#utility.yul\":8788:8850   */\n    tag_208:\n        /* \"#utility.yul\":8736:8856   */\n      pop\n      jump\t// out\n        /* \"#utility.yul\":8862:9003   */\n    tag_117:\n        /* \"#utility.yul\":8918:8923   */\n      0x00\n        /* \"#utility.yul\":8949:8955   */\n      dup2\n        /* \"#utility.yul\":8943:8956   */\n      mload\n        /* \"#utility.yul\":8934:8956   */\n      swap1\n      pop\n        /* \"#utility.yul\":8965:8997   */\n      tag_210\n        /* \"#utility.yul\":8991:8996   */\n      dup2\n        /* \"#utility.yul\":8965:8997   */\n      tag_116\n      jump\t// in\n    tag_210:\n        /* \"#utility.yul\":8862:9003   */\n      swap3\n      swap2\n      pop\n      pop\n      jump\t// out\n        /* \"#utility.yul\":9009:9152   */\n    tag_118:\n        /* \"#utility.yul\":9066:9071   */\n      0x00\n        /* \"#utility.yul\":9097:9103   */\n      dup2\n        /* \"#utility.yul\":9091:9104   */\n      mload\n        /* \"#utility.yul\":9082:9104   */\n      swap1\n      pop\n        /* \"#utility.yul\":9113:9146   */\n      tag_212\n        /* \"#utility.yul\":9140:9145   */\n      dup2\n        /* \"#utility.yul\":9113:9146   */\n      tag_97\n      jump\t// in\n    tag_212:\n        /* \"#utility.yul\":9009:9152   */\n      swap3\n      swap2\n      pop\n      pop\n      jump\t// out\n        /* \"#utility.yul\":9158:10129   */\n    tag_78:\n        /* \"#utility.yul\":9261:9267   */\n      0x00\n        /* \"#utility.yul\":9269:9275   */\n      0x00\n        /* \"#utility.yul\":9277:9283   */\n      0x00\n        /* \"#utility.yul\":9285:9291   */\n      0x00\n        /* \"#utility.yul\":9293:9299   */\n      0x00\n        /* \"#utility.yul\":9342:9345   */\n      0xa0\n        /* \"#utility.yul\":9330:9339   */\n      dup7\n        /* \"#utility.yul\":9321:9328   */\n      dup9\n        /* \"#utility.yul\":9317:9340   */\n      sub\n        /* \"#utility.yul\":9313:9346   */\n      slt\n        /* \"#utility.yul\":9310:9430   */\n      iszero\n      tag_214\n      jumpi\n        /* \"#utility.yul\":9349:9428   */\n      tag_215\n      tag_89\n      jump\t// in\n    tag_215:\n        /* \"#utility.yul\":9310:9430   */\n    tag_214:\n        /* \"#utility.yul\":9469:9470   */\n      0x00\n        /* \"#utility.yul\":9494:9557   */\n      tag_216\n        /* \"#utility.yul\":9549:9556   */\n      dup9\n        /* \"#utility.yul\":9540:9546   */\n      dup3\n        /* \"#utility.yul\":9529:9538   */\n      dup10\n        /* \"#utility.yul\":9525:9547   */\n      add\n        /* \"#utility.yul\":9494:9557   */\n      tag_114\n      jump\t// in\n    tag_216:\n        /* \"#utility.yul\":9484:9557   */\n      swap6\n      pop\n        /* \"#utility.yul\":9440:9567   */\n      pop\n        /* \"#utility.yul\":9606:9608   */\n      0x20\n        /* \"#utility.yul\":9632:9695   */\n      tag_217\n        /* \"#utility.yul\":9687:9694   */\n      dup9\n        /* \"#utility.yul\":9678:9684   */\n      dup3\n        /* \"#utility.yul\":9667:9676   */\n      dup10\n        /* \"#utility.yul\":9663:9685   */\n      add\n        /* \"#utility.yul\":9632:9695   */\n      tag_117\n      jump\t// in\n    tag_217:\n        /* \"#utility.yul\":9622:9695   */\n      swap5\n      pop\n        /* \"#utility.yul\":9577:9705   */\n      pop\n        /* \"#utility.yul\":9744:9746   */\n      0x40\n        /* \"#utility.yul\":9770:9834   */\n      tag_218\n        /* \"#utility.yul\":9826:9833   */\n      dup9\n        /* \"#utility.yul\":9817:9823   */\n      dup3\n        /* \"#utility.yul\":9806:9815   */\n      dup10\n        /* \"#utility.yul\":9802:9824   */\n      add\n        /* \"#utility.yul\":9770:9834   */\n      tag_118\n      jump\t// in\n    tag_218:\n        /* \"#utility.yul\":9760:9834   */\n      swap4\n      pop\n        /* \"#utility.yul\":9715:9844   */\n      pop\n        /* \"#utility.yul\":9883:9885   */\n      0x60\n        /* \"#utility.yul\":9909:9973   */\n      tag_219\n        /* \"#utility.yul\":9965:9972   */\n      dup9\n        /* \"#utility.yul\":9956:9962   */\n      dup3\n        /* \"#utility.yul\":9945:9954   */\n      dup10\n        /* \"#utility.yul\":9941:9963   */\n      add\n        /* \"#utility.yul\":9909:9973   */\n      tag_118\n      jump\t// in\n    tag_219:\n        /* \"#utility.yul\":9899:9973   */\n      swap3\n      pop\n        /* \"#utility.yul\":9854:9983   */\n      pop\n        /* \"#utility.yul\":10022:10025   */\n      0x80\n        /* \"#utility.yul\":10049:10112   */\n      tag_220\n        /* \"#utility.yul\":10104:10111   */\n      dup9\n        /* \"#utility.yul\":10095:10101   */\n      dup3\n        /* \"#utility.yul\":10084:10093   */\n      dup10\n        /* \"#utility.yul\":10080:10102   */\n      add\n        /* \"#utility.yul\":10049:10112   */\n      tag_114\n      jump\t// in\n    tag_220:\n        /* \"#utility.yul\":10039:10112   */\n      swap2\n      pop\n        /* \"#utility.yul\":9993:10122   */\n      pop\n        /* \"#utility.yul\":9158:10129   */\n      swap3\n      swap6\n      pop\n      swap3\n      swap6\n      swap1\n      swap4\n      pop\n      jump\t// out\n        /* \"#utility.yul\":10135:10691   */\n    tag_80:\n        /* \"#utility.yul\":10174:10181   */\n      0x00\n        /* \"#utility.yul\":10197:10216   */\n      tag_222\n        /* \"#utility.yul\":10214:10215   */\n      dup3\n        /* \"#utility.yul\":10197:10216   */\n      tag_115\n      jump\t// in\n    tag_222:\n        /* \"#utility.yul\":10192:10216   */\n      swap2\n      pop\n        /* \"#utility.yul\":10230:10249   */\n      tag_223\n        /* \"#utility.yul\":10247:10248   */\n      dup4\n        /* \"#utility.yul\":10230:10249   */\n      tag_115\n      jump\t// in\n    tag_223:\n        /* \"#utility.yul\":10225:10249   */\n      swap3\n      pop\n        /* \"#utility.yul\":10284:10285   */\n      dup3\n        /* \"#utility.yul\":10281:10282   */\n      dup3\n        /* \"#utility.yul\":10277:10286   */\n      mul\n        /* \"#utility.yul\":10306:10335   */\n      tag_224\n        /* \"#utility.yul\":10323:10334   */\n      dup2\n        /* \"#utility.yul\":10306:10335   */\n      tag_115\n      jump\t// in\n    tag_224:\n        /* \"#utility.yul\":10295:10335   */\n      swap2\n      pop\n        /* \"#utility.yul\":10393:10459   */\n      0x8000000000000000000000000000000000000000000000000000000000000000\n        /* \"#utility.yul\":10390:10391   */\n      dup5\n        /* \"#utility.yul\":10387:10460   */\n      eq\n        /* \"#utility.yul\":10383:10384   */\n      0x00\n        /* \"#utility.yul\":10380:10381   */\n      dup5\n        /* \"#utility.yul\":10376:10385   */\n      slt\n        /* \"#utility.yul\":10372:10461   */\n      and\n        /* \"#utility.yul\":10369:10484   */\n      iszero\n      tag_225\n      jumpi\n        /* \"#utility.yul\":10464:10482   */\n      tag_226\n      tag_110\n      jump\t// in\n    tag_226:\n        /* \"#utility.yul\":10369:10484   */\n    tag_225:\n        /* \"#utility.yul\":10634:10635   */\n      dup3\n        /* \"#utility.yul\":10625:10632   */\n      dup3\n        /* \"#utility.yul\":10620:10636   */\n      sdiv\n        /* \"#utility.yul\":10617:10618   */\n      dup5\n        /* \"#utility.yul\":10614:10637   */\n      eq\n        /* \"#utility.yul\":10594:10595   */\n      dup4\n        /* \"#utility.yul\":10587:10596   */\n      iszero\n        /* \"#utility.yul\":10567:10651   */\n      or\n        /* \"#utility.yul\":10544:10684   */\n      tag_227\n      jumpi\n        /* \"#utility.yul\":10664:10682   */\n      tag_228\n      tag_110\n      jump\t// in\n    tag_228:\n        /* \"#utility.yul\":10544:10684   */\n    tag_227:\n        /* \"#utility.yul\":10182:10691   */\n      pop\n        /* \"#utility.yul\":10135:10691   */\n      swap3\n      swap2\n      pop\n      pop\n      jump\t// out\n\n    auxdata: 0xa2646970667358221220d848d29d65b56229a9337a15933b1c40f793c89ec5176d44c31e4f753514786a64736f6c634300081e0033\n}\n",
				"bytecode": {
					"linkReferences": {},
					"object": "6080604052674563918244f40000600355348015601a575f5ffd5b503360025f6101000a81548173ffffffffffffffffffffffffffffffffffffffff021916908373ffffffffffffffffffffffffffffffffffffffff160217905550610bdc806100685f395ff3fe608060405260043610610049575f3560e01c80632e7154291461004d5780633ccfd60b1461008957806372437bfd1461009f578063b60d4288146100c9578063dc0d3dff146100d3575b5f5ffd5b348015610058575f5ffd5b50610073600480360381019061006e9190610679565b61010f565b60405161008091906106bc565b60405180910390f35b348015610094575f5ffd5b5061009d610124565b005b3480156100aa575f5ffd5b506100b361035c565b6040516100c091906106bc565b60405180910390f35b6100d1610362565b005b3480156100de575f5ffd5b506100f960048036038101906100f491906106ff565b610462565b6040516101069190610739565b60405180910390f35b6001602052805f5260405f205f915090505481565b60025f9054906101000a900473ffffffffffffffffffffffffffffffffffffffff1673ffffffffffffffffffffffffffffffffffffffff163373ffffffffffffffffffffffffffffffffffffffff16146101b3576040517f08c379a00000000000000000000000000000000000000000000000000000000081526004016101aa906107ac565b60405180910390fd5b5f5f90505b5f80549050811015610252575f5f82815481106101d8576101d76107ca565b5b905f5260205f20015f9054906101000a900473ffffffffffffffffffffffffffffffffffffffff1690505f60015f8373ffffffffffffffffffffffffffffffffffffffff1673ffffffffffffffffffffffffffffffffffffffff1681526020019081526020015f20819055505080806001019150506101b8565b505f67ffffffffffffffff81111561026d5761026c6107f7565b5b60405190808252806020026020018201604052801561029b5781602001602082028036833780820191505090505b505f90805190602001906102b0929190610579565b505f3373ffffffffffffffffffffffffffffffffffffffff16476040516102d690610851565b5f6040518083038185875af1925050503d805f8114610310576040519150601f19603f3d011682016040523d82523d5f602084013e610315565b606091505b5050905080610359576040517f08c379a0000000000000000000000000000000000000000000000000000000008152600401610350906108af565b60405180910390fd5b50565b60035481565b60035461036e3461049c565b116103ae576040517f08c379a00000000000000000000000000000000000000000000000000000000081526004016103a590610917565b60405180910390fd5b5f33908060018154018082558091505060019003905f5260205f20015f9091909190916101000a81548173ffffffffffffffffffffffffffffffffffffffff021916908373ffffffffffffffffffffffffffffffffffffffff1602179055503460015f3373ffffffffffffffffffffffffffffffffffffffff1673ffffffffffffffffffffffffffffffffffffffff1681526020019081526020015f205f8282546104599190610962565b92505081905550565b5f8181548110610470575f80fd5b905f5260205f20015f915054906101000a900473ffffffffffffffffffffffffffffffffffffffff1681565b5f5f6104a66104d4565b90505f670de0b6b3a764000084836104be9190610995565b6104c89190610a03565b90508092505050919050565b5f5f73694aa1769357215de4fac081bf1f309adc32530690505f8173ffffffffffffffffffffffffffffffffffffffff1663feaf968c6040518163ffffffff1660e01b815260040160a060405180830381865afa158015610537573d5f5f3e3d5ffd5b505050506040513d601f19601f8201168201806040525081019061055b9190610ab9565b5050509150506402540be400816105729190610b30565b9250505090565b828054828255905f5260205f209081019282156105ef579160200282015b828111156105ee578251825f6101000a81548173ffffffffffffffffffffffffffffffffffffffff021916908373ffffffffffffffffffffffffffffffffffffffff16021790555091602001919060010190610597565b5b5090506105fc9190610600565b5090565b5b80821115610617575f815f905550600101610601565b5090565b5f5ffd5b5f73ffffffffffffffffffffffffffffffffffffffff82169050919050565b5f6106488261061f565b9050919050565b6106588161063e565b8114610662575f5ffd5b50565b5f813590506106738161064f565b92915050565b5f6020828403121561068e5761068d61061b565b5b5f61069b84828501610665565b91505092915050565b5f819050919050565b6106b6816106a4565b82525050565b5f6020820190506106cf5f8301846106ad565b92915050565b6106de816106a4565b81146106e8575f5ffd5b50565b5f813590506106f9816106d5565b92915050565b5f602082840312156107145761071361061b565b5b5f610721848285016106eb565b91505092915050565b6107338161063e565b82525050565b5f60208201905061074c5f83018461072a565b92915050565b5f82825260208201905092915050565b7f4f6e6c79206f776e65722063616e206163636573732e000000000000000000005f82015250565b5f610796601683610752565b91506107a182610762565b602082019050919050565b5f6020820190508181035f8301526107c38161078a565b9050919050565b7f4e487b71000000000000000000000000000000000000000000000000000000005f52603260045260245ffd5b7f4e487b71000000000000000000000000000000000000000000000000000000005f52604160045260245ffd5b5f81905092915050565b50565b5f61083c5f83610824565b91506108478261082e565b5f82019050919050565b5f61085b82610831565b9150819050919050565b7f43616c6c206661696c65640000000000000000000000000000000000000000005f82015250565b5f610899600b83610752565b91506108a482610865565b602082019050919050565b5f6020820190508181035f8301526108c68161088d565b9050919050565b7f6469646e27742073656e6420656e6f75676820657468000000000000000000005f82015250565b5f610901601683610752565b915061090c826108cd565b602082019050919050565b5f6020820190508181035f83015261092e816108f5565b9050919050565b7f4e487b71000000000000000000000000000000000000000000000000000000005f52601160045260245ffd5b5f61096c826106a4565b9150610977836106a4565b925082820190508082111561098f5761098e610935565b5b92915050565b5f61099f826106a4565b91506109aa836106a4565b92508282026109b8816106a4565b915082820484148315176109cf576109ce610935565b5b5092915050565b7f4e487b71000000000000000000000000000000000000000000000000000000005f52601260045260245ffd5b5f610a0d826106a4565b9150610a18836106a4565b925082610a2857610a276109d6565b5b828204905092915050565b5f69ffffffffffffffffffff82169050919050565b610a5181610a33565b8114610a5b575f5ffd5b50565b5f81519050610a6c81610a48565b92915050565b5f819050919050565b610a8481610a72565b8114610a8e575f5ffd5b50565b5f81519050610a9f81610a7b565b92915050565b5f81519050610ab3816106d5565b92915050565b5f5f5f5f5f60a08688031215610ad257610ad161061b565b5b5f610adf88828901610a5e565b9550506020610af088828901610a91565b9450506040610b0188828901610aa5565b9350506060610b1288828901610aa5565b9250506080610b2388828901610a5e565b9150509295509295909350565b5f610b3a82610a72565b9150610b4583610a72565b9250828202610b5381610a72565b91507f800000000000000000000000000000000000000000000000000000000000000084145f84121615610b8a57610b89610935565b5b8282058414831517610b9f57610b9e610935565b5b509291505056fea2646970667358221220d848d29d65b56229a9337a15933b1c40f793c89ec5176d44c31e4f753514786a64736f6c634300081e0033",
					"opcodes": "PUSH1 0x80 PUSH1 0x40 MSTORE PUSH8 0x4563918244F40000 PUSH1 0x3 SSTORE CALLVALUE DUP1 ISZERO PUSH1 0x1A JUMPI PUSH0 PUSH0 REVERT JUMPDEST POP CALLER PUSH1 0x2 PUSH0 PUSH2 0x100 EXP DUP2 SLOAD DUP2 PUSH20 0xFFFFFFFFFFFFFFFFFFFFFFFFFFFFFFFFFFFFFFFF MUL NOT AND SWAP1 DUP4 PUSH20 0xFFFFFFFFFFFFFFFFFFFFFFFFFFFFFFFFFFFFFFFF AND MUL OR SWAP1 SSTORE POP PUSH2 0xBDC DUP1 PUSH2 0x68 PUSH0 CODECOPY PUSH0 RETURN INVALID PUSH1 0x80 PUSH1 0x40 MSTORE PUSH1 0x4 CALLDATASIZE LT PUSH2 0x49 JUMPI PUSH0 CALLDATALOAD PUSH1 0xE0 SHR DUP1 PUSH4 0x2E715429 EQ PUSH2 0x4D JUMPI DUP1 PUSH4 0x3CCFD60B EQ PUSH2 0x89 JUMPI DUP1 PUSH4 0x72437BFD EQ PUSH2 0x9F JUMPI DUP1 PUSH4 0xB60D4288 EQ PUSH2 0xC9 JUMPI DUP1 PUSH4 0xDC0D3DFF EQ PUSH2 0xD3 JUMPI JUMPDEST PUSH0 PUSH0 REVERT JUMPDEST CALLVALUE DUP1 ISZERO PUSH2 0x58 JUMPI PUSH0 PUSH0 REVERT JUMPDEST POP PUSH2 0x73 PUSH1 0x4 DUP1 CALLDATASIZE SUB DUP2 ADD SWAP1 PUSH2 0x6E SWAP2 SWAP1 PUSH2 0x679 JUMP JUMPDEST PUSH2 0x10F JUMP JUMPDEST PUSH1 0x40 MLOAD PUSH2 0x80 SWAP2 SWAP1 PUSH2 0x6BC JUMP JUMPDEST PUSH1 0x40 MLOAD DUP1 SWAP2 SUB SWAP1 RETURN JUMPDEST CALLVALUE DUP1 ISZERO PUSH2 0x94 JUMPI PUSH0 PUSH0 REVERT JUMPDEST POP PUSH2 0x9D PUSH2 0x124 JUMP JUMPDEST STOP JUMPDEST CALLVALUE DUP1 ISZERO PUSH2 0xAA JUMPI PUSH0 PUSH0 REVERT JUMPDEST POP PUSH2 0xB3 PUSH2 0x35C JUMP JUMPDEST PUSH1 0x40 MLOAD PUSH2 0xC0 SWAP2 SWAP1 PUSH2 0x6BC JUMP JUMPDEST PUSH1 0x40 MLOAD DUP1 SWAP2 SUB SWAP1 RETURN JUMPDEST PUSH2 0xD1 PUSH2 0x362 JUMP JUMPDEST STOP JUMPDEST CALLVALUE DUP1 ISZERO PUSH2 0xDE JUMPI PUSH0 PUSH0 REVERT JUMPDEST POP PUSH2 0xF9 PUSH1 0x4 DUP1 CALLDATASIZE SUB DUP2 ADD SWAP1 PUSH2 0xF4 SWAP2 SWAP1 PUSH2 0x6FF JUMP JUMPDEST PUSH2 0x462 JUMP JUMPDEST PUSH1 0x40 MLOAD PUSH2 0x106 SWAP2 SWAP1 PUSH2 0x739 JUMP JUMPDEST PUSH1 0x40 MLOAD DUP1 SWAP2 SUB SWAP1 RETURN JUMPDEST PUSH1 0x1 PUSH1 0x20 MSTORE DUP1 PUSH0 MSTORE PUSH1 0x40 PUSH0 KECCAK256 PUSH0 SWAP2 POP SWAP1 POP SLOAD DUP2 JUMP JUMPDEST PUSH1 0x2 PUSH0 SWAP1 SLOAD SWAP1 PUSH2 0x100 EXP SWAP1 DIV PUSH20 0xFFFFFFFFFFFFFFFFFFFFFFFFFFFFFFFFFFFFFFFF AND PUSH20 0xFFFFFFFFFFFFFFFFFFFFFFFFFFFFFFFFFFFFFFFF AND CALLER PUSH20 0xFFFFFFFFFFFFFFFFFFFFFFFFFFFFFFFFFFFFFFFF AND EQ PUSH2 0x1B3 JUMPI PUSH1 0x40 MLOAD PUSH32 0x8C379A000000000000000000000000000000000000000000000000000000000 DUP2 MSTORE PUSH1 0x4 ADD PUSH2 0x1AA SWAP1 PUSH2 0x7AC JUMP JUMPDEST PUSH1 0x40 MLOAD DUP1 SWAP2 SUB SWAP1 REVERT JUMPDEST PUSH0 PUSH0 SWAP1 POP JUMPDEST PUSH0 DUP1 SLOAD SWAP1 POP DUP2 LT ISZERO PUSH2 0x252 JUMPI PUSH0 PUSH0 DUP3 DUP2 SLOAD DUP2 LT PUSH2 0x1D8 JUMPI PUSH2 0x1D7 PUSH2 0x7CA JUMP JUMPDEST JUMPDEST SWAP1 PUSH0 MSTORE PUSH1 0x20 PUSH0 KECCAK256 ADD PUSH0 SWAP1 SLOAD SWAP1 PUSH2 0x100 EXP SWAP1 DIV PUSH20 0xFFFFFFFFFFFFFFFFFFFFFFFFFFFFFFFFFFFFFFFF AND SWAP1 POP PUSH0 PUSH1 0x1 PUSH0 DUP4 PUSH20 0xFFFFFFFFFFFFFFFFFFFFFFFFFFFFFFFFFFFFFFFF AND PUSH20 0xFFFFFFFFFFFFFFFFFFFFFFFFFFFFFFFFFFFFFFFF AND DUP2 MSTORE PUSH1 0x20 ADD SWAP1 DUP2 MSTORE PUSH1 0x20 ADD PUSH0 KECCAK256 DUP2 SWAP1 SSTORE POP POP DUP1 DUP1 PUSH1 0x1 ADD SWAP2 POP POP PUSH2 0x1B8 JUMP JUMPDEST POP PUSH0 PUSH8 0xFFFFFFFFFFFFFFFF DUP2 GT ISZERO PUSH2 0x26D JUMPI PUSH2 0x26C PUSH2 0x7F7 JUMP JUMPDEST JUMPDEST PUSH1 0x40 MLOAD SWAP1 DUP1 DUP3 MSTORE DUP1 PUSH1 0x20 MUL PUSH1 0x20 ADD DUP3 ADD PUSH1 0x40 MSTORE DUP1 ISZERO PUSH2 0x29B JUMPI DUP2 PUSH1 0x20 ADD PUSH1 0x20 DUP3 MUL DUP1 CALLDATASIZE DUP4 CALLDATACOPY DUP1 DUP3 ADD SWAP2 POP POP SWAP1 POP JUMPDEST POP PUSH0 SWAP1 DUP1 MLOAD SWAP1 PUSH1 0x20 ADD SWAP1 PUSH2 0x2B0 SWAP3 SWAP2 SWAP1 PUSH2 0x579 JUMP JUMPDEST POP PUSH0 CALLER PUSH20 0xFFFFFFFFFFFFFFFFFFFFFFFFFFFFFFFFFFFFFFFF AND SELFBALANCE PUSH1 0x40 MLOAD PUSH2 0x2D6 SWAP1 PUSH2 0x851 JUMP JUMPDEST PUSH0 PUSH1 0x40 MLOAD DUP1 DUP4 SUB DUP2 DUP6 DUP8 GAS CALL SWAP3 POP POP POP RETURNDATASIZE DUP1 PUSH0 DUP2 EQ PUSH2 0x310 JUMPI PUSH1 0x40 MLOAD SWAP2 POP PUSH1 0x1F NOT PUSH1 0x3F RETURNDATASIZE ADD AND DUP3 ADD PUSH1 0x40 MSTORE RETURNDATASIZE DUP3 MSTORE RETURNDATASIZE PUSH0 PUSH1 0x20 DUP5 ADD RETURNDATACOPY PUSH2 0x315 JUMP JUMPDEST PUSH1 0x60 SWAP2 POP JUMPDEST POP POP SWAP1 POP DUP1 PUSH2 0x359 JUMPI PUSH1 0x40 MLOAD PUSH32 0x8C379A000000000000000000000000000000000000000000000000000000000 DUP2 MSTORE PUSH1 0x4 ADD PUSH2 0x350 SWAP1 PUSH2 0x8AF JUMP JUMPDEST PUSH1 0x40 MLOAD DUP1 SWAP2 SUB SWAP1 REVERT JUMPDEST POP JUMP JUMPDEST PUSH1 0x3 SLOAD DUP2 JUMP JUMPDEST PUSH1 0x3 SLOAD PUSH2 0x36E CALLVALUE PUSH2 0x49C JUMP JUMPDEST GT PUSH2 0x3AE JUMPI PUSH1 0x40 MLOAD PUSH32 0x8C379A000000000000000000000000000000000000000000000000000000000 DUP2 MSTORE PUSH1 0x4 ADD PUSH2 0x3A5 SWAP1 PUSH2 0x917 JUMP JUMPDEST PUSH1 0x40 MLOAD DUP1 SWAP2 SUB SWAP1 REVERT JUMPDEST PUSH0 CALLER SWAP1 DUP1 PUSH1 0x1 DUP2 SLOAD ADD DUP1 DUP3 SSTORE DUP1 SWAP2 POP POP PUSH1 0x1 SWAP1 SUB SWAP1 PUSH0 MSTORE PUSH1 0x20 PUSH0 KECCAK256 ADD PUSH0 SWAP1 SWAP2 SWAP1 SWAP2 SWAP1 SWAP2 PUSH2 0x100 EXP DUP2 SLOAD DUP2 PUSH20 0xFFFFFFFFFFFFFFFFFFFFFFFFFFFFFFFFFFFFFFFF MUL NOT AND SWAP1 DUP4 PUSH20 0xFFFFFFFFFFFFFFFFFFFFFFFFFFFFFFFFFFFFFFFF AND MUL OR SWAP1 SSTORE POP CALLVALUE PUSH1 0x1 PUSH0 CALLER PUSH20 0xFFFFFFFFFFFFFFFFFFFFFFFFFFFFFFFFFFFFFFFF AND PUSH20 0xFFFFFFFFFFFFFFFFFFFFFFFFFFFFFFFFFFFFFFFF AND DUP2 MSTORE PUSH1 0x20 ADD SWAP1 DUP2 MSTORE PUSH1 0x20 ADD PUSH0 KECCAK256 PUSH0 DUP3 DUP3 SLOAD PUSH2 0x459 SWAP2 SWAP1 PUSH2 0x962 JUMP JUMPDEST SWAP3 POP POP DUP2 SWAP1 SSTORE POP JUMP JUMPDEST PUSH0 DUP2 DUP2 SLOAD DUP2 LT PUSH2 0x470 JUMPI PUSH0 DUP1 REVERT JUMPDEST SWAP1 PUSH0 MSTORE PUSH1 0x20 PUSH0 KECCAK256 ADD PUSH0 SWAP2 POP SLOAD SWAP1 PUSH2 0x100 EXP SWAP1 DIV PUSH20 0xFFFFFFFFFFFFFFFFFFFFFFFFFFFFFFFFFFFFFFFF AND DUP2 JUMP JUMPDEST PUSH0 PUSH0 PUSH2 0x4A6 PUSH2 0x4D4 JUMP JUMPDEST SWAP1 POP PUSH0 PUSH8 0xDE0B6B3A7640000 DUP5 DUP4 PUSH2 0x4BE SWAP2 SWAP1 PUSH2 0x995 JUMP JUMPDEST PUSH2 0x4C8 SWAP2 SWAP1 PUSH2 0xA03 JUMP JUMPDEST SWAP1 POP DUP1 SWAP3 POP POP POP SWAP2 SWAP1 POP JUMP JUMPDEST PUSH0 PUSH0 PUSH20 0x694AA1769357215DE4FAC081BF1F309ADC325306 SWAP1 POP PUSH0 DUP2 PUSH20 0xFFFFFFFFFFFFFFFFFFFFFFFFFFFFFFFFFFFFFFFF AND PUSH4 0xFEAF968C PUSH1 0x40 MLOAD DUP2 PUSH4 0xFFFFFFFF AND PUSH1 0xE0 SHL DUP2 MSTORE PUSH1 0x4 ADD PUSH1 0xA0 PUSH1 0x40 MLOAD DUP1 DUP4 SUB DUP2 DUP7 GAS STATICCALL ISZERO DUP1 ISZERO PUSH2 0x537 JUMPI RETURNDATASIZE PUSH0 PUSH0 RETURNDATACOPY RETURNDATASIZE PUSH0 REVERT JUMPDEST POP POP POP POP PUSH1 0x40 MLOAD RETURNDATASIZE PUSH1 0x1F NOT PUSH1 0x1F DUP3 ADD AND DUP3 ADD DUP1 PUSH1 0x40 MSTORE POP DUP2 ADD SWAP1 PUSH2 0x55B SWAP2 SWAP1 PUSH2 0xAB9 JUMP JUMPDEST POP POP POP SWAP2 POP POP PUSH5 0x2540BE400 DUP2 PUSH2 0x572 SWAP2 SWAP1 PUSH2 0xB30 JUMP JUMPDEST SWAP3 POP POP POP SWAP1 JUMP JUMPDEST DUP3 DUP1 SLOAD DUP3 DUP3 SSTORE SWAP1 PUSH0 MSTORE PUSH1 0x20 PUSH0 KECCAK256 SWAP1 DUP2 ADD SWAP3 DUP3 ISZERO PUSH2 0x5EF JUMPI SWAP2 PUSH1 0x20 MUL DUP3 ADD JUMPDEST DUP3 DUP2 GT ISZERO PUSH2 0x5EE JUMPI DUP3 MLOAD DUP3 PUSH0 PUSH2 0x100 EXP DUP2 SLOAD DUP2 PUSH20 0xFFFFFFFFFFFFFFFFFFFFFFFFFFFFFFFFFFFFFFFF MUL NOT AND SWAP1 DUP4 PUSH20 0xFFFFFFFFFFFFFFFFFFFFFFFFFFFFFFFFFFFFFFFF AND MUL OR SWAP1 SSTORE POP SWAP2 PUSH1 0x20 ADD SWAP2 SWAP1 PUSH1 0x1 ADD SWAP1 PUSH2 0x597 JUMP JUMPDEST JUMPDEST POP SWAP1 POP PUSH2 0x5FC SWAP2 SWAP1 PUSH2 0x600 JUMP JUMPDEST POP SWAP1 JUMP JUMPDEST JUMPDEST DUP1 DUP3 GT ISZERO PUSH2 0x617 JUMPI PUSH0 DUP2 PUSH0 SWAP1 SSTORE POP PUSH1 0x1 ADD PUSH2 0x601 JUMP JUMPDEST POP SWAP1 JUMP JUMPDEST PUSH0 PUSH0 REVERT JUMPDEST PUSH0 PUSH20 0xFFFFFFFFFFFFFFFFFFFFFFFFFFFFFFFFFFFFFFFF DUP3 AND SWAP1 POP SWAP2 SWAP1 POP JUMP JUMPDEST PUSH0 PUSH2 0x648 DUP3 PUSH2 0x61F JUMP JUMPDEST SWAP1 POP SWAP2 SWAP1 POP JUMP JUMPDEST PUSH2 0x658 DUP2 PUSH2 0x63E JUMP JUMPDEST DUP2 EQ PUSH2 0x662 JUMPI PUSH0 PUSH0 REVERT JUMPDEST POP JUMP JUMPDEST PUSH0 DUP2 CALLDATALOAD SWAP1 POP PUSH2 0x673 DUP2 PUSH2 0x64F JUMP JUMPDEST SWAP3 SWAP2 POP POP JUMP JUMPDEST PUSH0 PUSH1 0x20 DUP3 DUP5 SUB SLT ISZERO PUSH2 0x68E JUMPI PUSH2 0x68D PUSH2 0x61B JUMP JUMPDEST JUMPDEST PUSH0 PUSH2 0x69B DUP5 DUP3 DUP6 ADD PUSH2 0x665 JUMP JUMPDEST SWAP2 POP POP SWAP3 SWAP2 POP POP JUMP JUMPDEST PUSH0 DUP2 SWAP1 POP SWAP2 SWAP1 POP JUMP JUMPDEST PUSH2 0x6B6 DUP2 PUSH2 0x6A4 JUMP JUMPDEST DUP3 MSTORE POP POP JUMP JUMPDEST PUSH0 PUSH1 0x20 DUP3 ADD SWAP1 POP PUSH2 0x6CF PUSH0 DUP4 ADD DUP5 PUSH2 0x6AD JUMP JUMPDEST SWAP3 SWAP2 POP POP JUMP JUMPDEST PUSH2 0x6DE DUP2 PUSH2 0x6A4 JUMP JUMPDEST DUP2 EQ PUSH2 0x6E8 JUMPI PUSH0 PUSH0 REVERT JUMPDEST POP JUMP JUMPDEST PUSH0 DUP2 CALLDATALOAD SWAP1 POP PUSH2 0x6F9 DUP2 PUSH2 0x6D5 JUMP JUMPDEST SWAP3 SWAP2 POP POP JUMP JUMPDEST PUSH0 PUSH1 0x20 DUP3 DUP5 SUB SLT ISZERO PUSH2 0x714 JUMPI PUSH2 0x713 PUSH2 0x61B JUMP JUMPDEST JUMPDEST PUSH0 PUSH2 0x721 DUP5 DUP3 DUP6 ADD PUSH2 0x6EB JUMP JUMPDEST SWAP2 POP POP SWAP3 SWAP2 POP POP JUMP JUMPDEST PUSH2 0x733 DUP2 PUSH2 0x63E JUMP JUMPDEST DUP3 MSTORE POP POP JUMP JUMPDEST PUSH0 PUSH1 0x20 DUP3 ADD SWAP1 POP PUSH2 0x74C PUSH0 DUP4 ADD DUP5 PUSH2 0x72A JUMP JUMPDEST SWAP3 SWAP2 POP POP JUMP JUMPDEST PUSH0 DUP3 DUP3 MSTORE PUSH1 0x20 DUP3 ADD SWAP1 POP SWAP3 SWAP2 POP POP JUMP JUMPDEST PUSH32 0x4F6E6C79206F776E65722063616E206163636573732E00000000000000000000 PUSH0 DUP3 ADD MSTORE POP JUMP JUMPDEST PUSH0 PUSH2 0x796 PUSH1 0x16 DUP4 PUSH2 0x752 JUMP JUMPDEST SWAP2 POP PUSH2 0x7A1 DUP3 PUSH2 0x762 JUMP JUMPDEST PUSH1 0x20 DUP3 ADD SWAP1 POP SWAP2 SWAP1 POP JUMP JUMPDEST PUSH0 PUSH1 0x20 DUP3 ADD SWAP1 POP DUP2 DUP2 SUB PUSH0 DUP4 ADD MSTORE PUSH2 0x7C3 DUP2 PUSH2 0x78A JUMP JUMPDEST SWAP1 POP SWAP2 SWAP1 POP JUMP JUMPDEST PUSH32 0x4E487B7100000000000000000000000000000000000000000000000000000000 PUSH0 MSTORE PUSH1 0x32 PUSH1 0x4 MSTORE PUSH1 0x24 PUSH0 REVERT JUMPDEST PUSH32 0x4E487B7100000000000000000000000000000000000000000000000000000000 PUSH0 MSTORE PUSH1 0x41 PUSH1 0x4 MSTORE PUSH1 0x24 PUSH0 REVERT JUMPDEST PUSH0 DUP2 SWAP1 POP SWAP3 SWAP2 POP POP JUMP JUMPDEST POP JUMP JUMPDEST PUSH0 PUSH2 0x83C PUSH0 DUP4 PUSH2 0x824 JUMP JUMPDEST SWAP2 POP PUSH2 0x847 DUP3 PUSH2 0x82E JUMP JUMPDEST PUSH0 DUP3 ADD SWAP1 POP SWAP2 SWAP1 POP JUMP JUMPDEST PUSH0 PUSH2 0x85B DUP3 PUSH2 0x831 JUMP JUMPDEST SWAP2 POP DUP2 SWAP1 POP SWAP2 SWAP1 POP JUMP JUMPDEST PUSH32 0x43616C6C206661696C6564000000000000000000000000000000000000000000 PUSH0 DUP3 ADD MSTORE POP JUMP JUMPDEST PUSH0 PUSH2 0x899 PUSH1 0xB DUP4 PUSH2 0x752 JUMP JUMPDEST SWAP2 POP PUSH2 0x8A4 DUP3 PUSH2 0x865 JUMP JUMPDEST PUSH1 0x20 DUP3 ADD SWAP1 POP SWAP2 SWAP1 POP JUMP JUMPDEST PUSH0 PUSH1 0x20 DUP3 ADD SWAP1 POP DUP2 DUP2 SUB PUSH0 DUP4 ADD MSTORE PUSH2 0x8C6 DUP2 PUSH2 0x88D JUMP JUMPDEST SWAP1 POP SWAP2 SWAP1 POP JUMP JUMPDEST PUSH32 0x6469646E27742073656E6420656E6F7567682065746800000000000000000000 PUSH0 DUP3 ADD MSTORE POP JUMP JUMPDEST PUSH0 PUSH2 0x901 PUSH1 0x16 DUP4 PUSH2 0x752 JUMP JUMPDEST SWAP2 POP PUSH2 0x90C DUP3 PUSH2 0x8CD JUMP JUMPDEST PUSH1 0x20 DUP3 ADD SWAP1 POP SWAP2 SWAP1 POP JUMP JUMPDEST PUSH0 PUSH1 0x20 DUP3 ADD SWAP1 POP DUP2 DUP2 SUB PUSH0 DUP4 ADD MSTORE PUSH2 0x92E DUP2 PUSH2 0x8F5 JUMP JUMPDEST SWAP1 POP SWAP2 SWAP1 POP JUMP JUMPDEST PUSH32 0x4E487B7100000000000000000000000000000000000000000000000000000000 PUSH0 MSTORE PUSH1 0x11 PUSH1 0x4 MSTORE PUSH1 0x24 PUSH0 REVERT JUMPDEST PUSH0 PUSH2 0x96C DUP3 PUSH2 0x6A4 JUMP JUMPDEST SWAP2 POP PUSH2 0x977 DUP4 PUSH2 0x6A4 JUMP JUMPDEST SWAP3 POP DUP3 DUP3 ADD SWAP1 POP DUP1 DUP3 GT ISZERO PUSH2 0x98F JUMPI PUSH2 0x98E PUSH2 0x935 JUMP JUMPDEST JUMPDEST SWAP3 SWAP2 POP POP JUMP JUMPDEST PUSH0 PUSH2 0x99F DUP3 PUSH2 0x6A4 JUMP JUMPDEST SWAP2 POP PUSH2 0x9AA DUP4 PUSH2 0x6A4 JUMP JUMPDEST SWAP3 POP DUP3 DUP3 MUL PUSH2 0x9B8 DUP2 PUSH2 0x6A4 JUMP JUMPDEST SWAP2 POP DUP3 DUP3 DIV DUP5 EQ DUP4 ISZERO OR PUSH2 0x9CF JUMPI PUSH2 0x9CE PUSH2 0x935 JUMP JUMPDEST JUMPDEST POP SWAP3 SWAP2 POP POP JUMP JUMPDEST PUSH32 0x4E487B7100000000000000000000000000000000000000000000000000000000 PUSH0 MSTORE PUSH1 0x12 PUSH1 0x4 MSTORE PUSH1 0x24 PUSH0 REVERT JUMPDEST PUSH0 PUSH2 0xA0D DUP3 PUSH2 0x6A4 JUMP JUMPDEST SWAP2 POP PUSH2 0xA18 DUP4 PUSH2 0x6A4 JUMP JUMPDEST SWAP3 POP DUP3 PUSH2 0xA28 JUMPI PUSH2 0xA27 PUSH2 0x9D6 JUMP JUMPDEST JUMPDEST DUP3 DUP3 DIV SWAP1 POP SWAP3 SWAP2 POP POP JUMP JUMPDEST PUSH0 PUSH10 0xFFFFFFFFFFFFFFFFFFFF DUP3 AND SWAP1 POP SWAP2 SWAP1 POP JUMP JUMPDEST PUSH2 0xA51 DUP2 PUSH2 0xA33 JUMP JUMPDEST DUP2 EQ PUSH2 0xA5B JUMPI PUSH0 PUSH0 REVERT JUMPDEST POP JUMP JUMPDEST PUSH0 DUP2 MLOAD SWAP1 POP PUSH2 0xA6C DUP2 PUSH2 0xA48 JUMP JUMPDEST SWAP3 SWAP2 POP POP JUMP JUMPDEST PUSH0 DUP2 SWAP1 POP SWAP2 SWAP1 POP JUMP JUMPDEST PUSH2 0xA84 DUP2 PUSH2 0xA72 JUMP JUMPDEST DUP2 EQ PUSH2 0xA8E JUMPI PUSH0 PUSH0 REVERT JUMPDEST POP JUMP JUMPDEST PUSH0 DUP2 MLOAD SWAP1 POP PUSH2 0xA9F DUP2 PUSH2 0xA7B JUMP JUMPDEST SWAP3 SWAP2 POP POP JUMP JUMPDEST PUSH0 DUP2 MLOAD SWAP1 POP PUSH2 0xAB3 DUP2 PUSH2 0x6D5 JUMP JUMPDEST SWAP3 SWAP2 POP POP JUMP JUMPDEST PUSH0 PUSH0 PUSH0 PUSH0 PUSH0 PUSH1 0xA0 DUP7 DUP9 SUB SLT ISZERO PUSH2 0xAD2 JUMPI PUSH2 0xAD1 PUSH2 0x61B JUMP JUMPDEST JUMPDEST PUSH0 PUSH2 0xADF DUP9 DUP3 DUP10 ADD PUSH2 0xA5E JUMP JUMPDEST SWAP6 POP POP PUSH1 0x20 PUSH2 0xAF0 DUP9 DUP3 DUP10 ADD PUSH2 0xA91 JUMP JUMPDEST SWAP5 POP POP PUSH1 0x40 PUSH2 0xB01 DUP9 DUP3 DUP10 ADD PUSH2 0xAA5 JUMP JUMPDEST SWAP4 POP POP PUSH1 0x60 PUSH2 0xB12 DUP9 DUP3 DUP10 ADD PUSH2 0xAA5 JUMP JUMPDEST SWAP3 POP POP PUSH1 0x80 PUSH2 0xB23 DUP9 DUP3 DUP10 ADD PUSH2 0xA5E JUMP JUMPDEST SWAP2 POP POP SWAP3 SWAP6 POP SWAP3 SWAP6 SWAP1 SWAP4 POP JUMP JUMPDEST PUSH0 PUSH2 0xB3A DUP3 PUSH2 0xA72 JUMP JUMPDEST SWAP2 POP PUSH2 0xB45 DUP4 PUSH2 0xA72 JUMP JUMPDEST SWAP3 POP DUP3 DUP3 MUL PUSH2 0xB53 DUP2 PUSH2 0xA72 JUMP JUMPDEST SWAP2 POP PUSH32 0x8000000000000000000000000000000000000000000000000000000000000000 DUP5 EQ PUSH0 DUP5 SLT AND ISZERO PUSH2 0xB8A JUMPI PUSH2 0xB89 PUSH2 0x935 JUMP JUMPDEST JUMPDEST DUP3 DUP3 SDIV DUP5 EQ DUP4 ISZERO OR PUSH2 0xB9F JUMPI PUSH2 0xB9E PUSH2 0x935 JUMP JUMPDEST JUMPDEST POP SWAP3 SWAP2 POP POP JUMP INVALID LOG2 PUSH5 0x6970667358 0x22 SLT KECCAK256 0xD8 BASEFEE 0xD2 SWAP14 PUSH6 0xB56229A9337A ISZERO SWAP4 EXTCODESIZE SHR BLOCKHASH 0xF7 SWAP4 0xC8 SWAP15 0xC5 OR PUSH14 0x44C31E4F753514786A64736F6C63 NUMBER STOP ADDMOD 0x1E STOP CALLER "
				},
				"gasEstimates": {
					"creation": {
						"codeDepositCost": "607200",
						"executionCost": "47007",
						"totalCost": "654207"
					},
					"external": {
						"addressToAmtFunded(address)": "2780",
						"fund()": "infinite",
						"funders(uint256)": "5009",
						"minAmtInUSD()": "2447",
						"withdraw()": "infinite"
					}
				},
				"methodIdentifiers": {
					"addressToAmtFunded(address)": "2e715429",
					"fund()": "b60d4288",
					"funders(uint256)": "dc0d3dff",
					"minAmtInUSD()": "72437bfd",
					"withdraw()": "3ccfd60b"
				}
			},
			"storageLayout": {
				"storage": [
					{
						"astId": 57,
						"contract": "FundMe.sol:FundMe",
						"label": "funders",
						"offset": 0,
						"slot": "0",
						"type": "t_array(t_address)dyn_storage"
					},
					{
						"astId": 61,
						"contract": "FundMe.sol:FundMe",
						"label": "addressToAmtFunded",
						"offset": 0,
						"slot": "1",
						"type": "t_mapping(t_address,t_uint256)"
					},
					{
						"astId": 63,
						"contract": "FundMe.sol:FundMe",
						"label": "owner",
						"offset": 0,
						"slot": "2",
						"type": "t_address"
					},
					{
						"astId": 75,
						"contract": "FundMe.sol:FundMe",
						"label": "minAmtInUSD",
						"offset": 0,
						"slot": "3",
						"type": "t_uint256"
					}
				],
				"types": {
					"t_address": {
						"encoding": "inplace",
						"label": "address",
						"numberOfBytes": "20"
					},
					"t_array(t_address)dyn_storage": {
						"base": "t_address",
						"encoding": "dynamic_array",
						"label": "address[]",
						"numberOfBytes": "32"
					},
					"t_mapping(t_address,t_uint256)": {
						"encoding": "mapping",
						"key": "t_address",
						"label": "mapping(address => uint256)",
						"numberOfBytes": "32",
						"value": "t_uint256"
					},
					"t_uint256": {
						"encoding": "inplace",
						"label": "uint256",
						"numberOfBytes": "32"
					}
				}
			},
			"userdoc": {
				"kind": "user",
				"methods": {},
				"version": 1
			}
		}
	}
}