{
	"data": {
		"bytecode": {
			"linkReferences": {},
			"object": "60a0604052348015600e575f5ffd5b503373ffffffffffffffffffffffffffffffffffffffff1660808173ffffffffffffffffffffffffffffffffffffffff1681525050608051610b7661005b5f395f6101260152610b765ff3fe608060405260043610610049575f3560e01c80632e7154291461004d5780633ccfd60b146100895780636b69a5921461009f578063b60d4288146100c9578063dc0d3dff146100d3575b5f5ffd5b348015610058575f5ffd5b50610073600480360381019061006e919061067b565b61010f565b60405161008091906106be565b60405180910390f35b348015610094575f5ffd5b5061009d610124565b005b3480156100aa575f5ffd5b506100b3610352565b6040516100c091906106be565b60405180910390f35b6100d161035e565b005b3480156100de575f5ffd5b506100f960048036038101906100f49190610701565b610464565b604051610106919061073b565b60405180910390f35b6001602052805f5260405f205f915090505481565b7f000000000000000000000000000000000000000000000000000000000000000073ffffffffffffffffffffffffffffffffffffffff163373ffffffffffffffffffffffffffffffffffffffff16146101a9576040517f30cd747100000000000000000000000000000000000000000000000000000000815260040160405180910390fd5b5f5f90505b5f80549050811015610248575f5f82815481106101ce576101cd610754565b5b905f5260205f20015f9054906101000a900473ffffffffffffffffffffffffffffffffffffffff1690505f60015f8373ffffffffffffffffffffffffffffffffffffffff1673ffffffffffffffffffffffffffffffffffffffff1681526020019081526020015f20819055505080806001019150506101ae565b505f67ffffffffffffffff81111561026357610262610781565b5b6040519080825280602002602001820160405280156102915781602001602082028036833780820191505090505b505f90805190602001906102a692919061057b565b505f3373ffffffffffffffffffffffffffffffffffffffff16476040516102cc906107db565b5f6040518083038185875af1925050503d805f8114610306576040519150601f19603f3d011682016040523d82523d5f602084013e61030b565b606091505b505090508061034f576040517f08c379a000000000000000000000000000000000000000000000000000000000815260040161034690610849565b60405180910390fd5b50565b674563918244f4000081565b674563918244f400006103703461049e565b116103b0576040517f08c379a00000000000000000000000000000000000000000000000000000000081526004016103a7906108b1565b60405180910390fd5b5f33908060018154018082558091505060019003905f5260205f20015f9091909190916101000a81548173ffffffffffffffffffffffffffffffffffffffff021916908373ffffffffffffffffffffffffffffffffffffffff1602179055503460015f3373ffffffffffffffffffffffffffffffffffffffff1673ffffffffffffffffffffffffffffffffffffffff1681526020019081526020015f205f82825461045b91906108fc565b92505081905550565b5f8181548110610472575f80fd5b905f5260205f20015f915054906101000a900473ffffffffffffffffffffffffffffffffffffffff1681565b5f5f6104a86104d6565b90505f670de0b6b3a764000084836104c0919061092f565b6104ca919061099d565b90508092505050919050565b5f5f73694aa1769357215de4fac081bf1f309adc32530690505f8173ffffffffffffffffffffffffffffffffffffffff1663feaf968c6040518163ffffffff1660e01b815260040160a060405180830381865afa158015610539573d5f5f3e3d5ffd5b505050506040513d601f19601f8201168201806040525081019061055d9190610a53565b5050509150506402540be400816105749190610aca565b9250505090565b828054828255905f5260205f209081019282156105f1579160200282015b828111156105f0578251825f6101000a81548173ffffffffffffffffffffffffffffffffffffffff021916908373ffffffffffffffffffffffffffffffffffffffff16021790555091602001919060010190610599565b5b5090506105fe9190610602565b5090565b5b80821115610619575f815f905550600101610603565b5090565b5f5ffd5b5f73ffffffffffffffffffffffffffffffffffffffff82169050919050565b5f61064a82610621565b9050919050565b61065a81610640565b8114610664575f5ffd5b50565b5f8135905061067581610651565b92915050565b5f602082840312156106905761068f61061d565b5b5f61069d84828501610667565b91505092915050565b5f819050919050565b6106b8816106a6565b82525050565b5f6020820190506106d15f8301846106af565b92915050565b6106e0816106a6565b81146106ea575f5ffd5b50565b5f813590506106fb816106d7565b92915050565b5f602082840312156107165761071561061d565b5b5f610723848285016106ed565b91505092915050565b61073581610640565b82525050565b5f60208201905061074e5f83018461072c565b92915050565b7f4e487b71000000000000000000000000000000000000000000000000000000005f52603260045260245ffd5b7f4e487b71000000000000000000000000000000000000000000000000000000005f52604160045260245ffd5b5f81905092915050565b50565b5f6107c65f836107ae565b91506107d1826107b8565b5f82019050919050565b5f6107e5826107bb565b9150819050919050565b5f82825260208201905092915050565b7f43616c6c206661696c65640000000000000000000000000000000000000000005f82015250565b5f610833600b836107ef565b915061083e826107ff565b602082019050919050565b5f6020820190508181035f83015261086081610827565b9050919050565b7f6469646e27742073656e6420656e6f75676820657468000000000000000000005f82015250565b5f61089b6016836107ef565b91506108a682610867565b602082019050919050565b5f6020820190508181035f8301526108c88161088f565b9050919050565b7f4e487b71000000000000000000000000000000000000000000000000000000005f52601160045260245ffd5b5f610906826106a6565b9150610911836106a6565b9250828201905080821115610929576109286108cf565b5b92915050565b5f610939826106a6565b9150610944836106a6565b9250828202610952816106a6565b91508282048414831517610969576109686108cf565b5b5092915050565b7f4e487b71000000000000000000000000000000000000000000000000000000005f52601260045260245ffd5b5f6109a7826106a6565b91506109b2836106a6565b9250826109c2576109c1610970565b5b828204905092915050565b5f69ffffffffffffffffffff82169050919050565b6109eb816109cd565b81146109f5575f5ffd5b50565b5f81519050610a06816109e2565b92915050565b5f819050919050565b610a1e81610a0c565b8114610a28575f5ffd5b50565b5f81519050610a3981610a15565b92915050565b5f81519050610a4d816106d7565b92915050565b5f5f5f5f5f60a08688031215610a6c57610a6b61061d565b5b5f610a79888289016109f8565b9550506020610a8a88828901610a2b565b9450506040610a9b88828901610a3f565b9350506060610aac88828901610a3f565b9250506080610abd888289016109f8565b9150509295509295909350565b5f610ad482610a0c565b9150610adf83610a0c565b9250828202610aed81610a0c565b91507f800000000000000000000000000000000000000000000000000000000000000084145f84121615610b2457610b236108cf565b5b8282058414831517610b3957610b386108cf565b5b509291505056fea26469706673582212204129d2caf99b9a40027d27caf6057ef3d87a99e1299287cbe18371960526687a64736f6c634300081e0033",
			"opcodes": "PUSH1 0xA0 PUSH1 0x40 MSTORE CALLVALUE DUP1 ISZERO PUSH1 0xE JUMPI PUSH0 PUSH0 REVERT JUMPDEST POP CALLER PUSH20 0xFFFFFFFFFFFFFFFFFFFFFFFFFFFFFFFFFFFFFFFF AND PUSH1 0x80 DUP2 PUSH20 0xFFFFFFFFFFFFFFFFFFFFFFFFFFFFFFFFFFFFFFFF AND DUP2 MSTORE POP POP PUSH1 0x80 MLOAD PUSH2 0xB76 PUSH2 0x5B PUSH0 CODECOPY PUSH0 PUSH2 0x126 ADD MSTORE PUSH2 0xB76 PUSH0 RETURN INVALID PUSH1 0x80 PUSH1 0x40 MSTORE PUSH1 0x4 CALLDATASIZE LT PUSH2 0x49 JUMPI PUSH0 CALLDATALOAD PUSH1 0xE0 SHR DUP1 PUSH4 0x2E715429 EQ PUSH2 0x4D JUMPI DUP1 PUSH4 0x3CCFD60B EQ PUSH2 0x89 JUMPI DUP1 PUSH4 0x6B69A592 EQ PUSH2 0x9F JUMPI DUP1 PUSH4 0xB60D4288 EQ PUSH2 0xC9 JUMPI DUP1 PUSH4 0xDC0D3DFF EQ PUSH2 0xD3 JUMPI JUMPDEST PUSH0 PUSH0 REVERT JUMPDEST CALLVALUE DUP1 ISZERO PUSH2 0x58 JUMPI PUSH0 PUSH0 REVERT JUMPDEST POP PUSH2 0x73 PUSH1 0x4 DUP1 CALLDATASIZE SUB DUP2 ADD SWAP1 PUSH2 0x6E SWAP2 SWAP1 PUSH2 0x67B JUMP JUMPDEST PUSH2 0x10F JUMP JUMPDEST PUSH1 0x40 MLOAD PUSH2 0x80 SWAP2 SWAP1 PUSH2 0x6BE JUMP JUMPDEST PUSH1 0x40 MLOAD DUP1 SWAP2 SUB SWAP1 RETURN JUMPDEST CALLVALUE DUP1 ISZERO PUSH2 0x94 JUMPI PUSH0 PUSH0 REVERT JUMPDEST POP PUSH2 0x9D PUSH2 0x124 JUMP JUMPDEST STOP JUMPDEST CALLVALUE DUP1 ISZERO PUSH2 0xAA JUMPI PUSH0 PUSH0 REVERT JUMPDEST POP PUSH2 0xB3 PUSH2 0x352 JUMP JUMPDEST PUSH1 0x40 MLOAD PUSH2 0xC0 SWAP2 SWAP1 PUSH2 0x6BE JUMP JUMPDEST PUSH1 0x40 MLOAD DUP1 SWAP2 SUB SWAP1 RETURN JUMPDEST PUSH2 0xD1 PUSH2 0x35E JUMP JUMPDEST STOP JUMPDEST CALLVALUE DUP1 ISZERO PUSH2 0xDE JUMPI PUSH0 PUSH0 REVERT JUMPDEST POP PUSH2 0xF9 PUSH1 0x4 DUP1 CALLDATASIZE SUB DUP2 ADD SWAP1 PUSH2 0xF4 SWAP2 SWAP1 PUSH2 0x701 JUMP JUMPDEST PUSH2 0x464 JUMP JUMPDEST PUSH1 0x40 MLOAD PUSH2 0x106 SWAP2 SWAP1 PUSH2 0x73B JUMP JUMPDEST PUSH1 0x40 MLOAD DUP1 SWAP2 SUB SWAP1 RETURN JUMPDEST PUSH1 0x1 PUSH1 0x20 MSTORE DUP1 PUSH0 MSTORE PUSH1 0x40 PUSH0 KECCAK256 PUSH0 SWAP2 POP SWAP1 POP SLOAD DUP2 JUMP JUMPDEST PUSH32 0x0 PUSH20 0xFFFFFFFFFFFFFFFFFFFFFFFFFFFFFFFFFFFFFFFF AND CALLER PUSH20 0xFFFFFFFFFFFFFFFFFFFFFFFFFFFFFFFFFFFFFFFF AND EQ PUSH2 0x1A9 JUMPI PUSH1 0x40 MLOAD PUSH32 0x30CD747100000000000000000000000000000000000000000000000000000000 DUP2 MSTORE PUSH1 0x4 ADD PUSH1 0x40 MLOAD DUP1 SWAP2 SUB SWAP1 REVERT JUMPDEST PUSH0 PUSH0 SWAP1 POP JUMPDEST PUSH0 DUP1 SLOAD SWAP1 POP DUP2 LT ISZERO PUSH2 0x248 JUMPI PUSH0 PUSH0 DUP3 DUP2 SLOAD DUP2 LT PUSH2 0x1CE JUMPI PUSH2 0x1CD PUSH2 0x754 JUMP JUMPDEST JUMPDEST SWAP1 PUSH0 MSTORE PUSH1 0x20 PUSH0 KECCAK256 ADD PUSH0 SWAP1 SLOAD SWAP1 PUSH2 0x100 EXP SWAP1 DIV PUSH20 0xFFFFFFFFFFFFFFFFFFFFFFFFFFFFFFFFFFFFFFFF AND SWAP1 POP PUSH0 PUSH1 0x1 PUSH0 DUP4 PUSH20 0xFFFFFFFFFFFFFFFFFFFFFFFFFFFFFFFFFFFFFFFF AND PUSH20 0xFFFFFFFFFFFFFFFFFFFFFFFFFFFFFFFFFFFFFFFF AND DUP2 MSTORE PUSH1 0x20 ADD SWAP1 DUP2 MSTORE PUSH1 0x20 ADD PUSH0 KECCAK256 DUP2 SWAP1 SSTORE POP POP DUP1 DUP1 PUSH1 0x1 ADD SWAP2 POP POP PUSH2 0x1AE JUMP JUMPDEST POP PUSH0 PUSH8 0xFFFFFFFFFFFFFFFF DUP2 GT ISZERO PUSH2 0x263 JUMPI PUSH2 0x262 PUSH2 0x781 JUMP JUMPDEST JUMPDEST PUSH1 0x40 MLOAD SWAP1 DUP1 DUP3 MSTORE DUP1 PUSH1 0x20 MUL PUSH1 0x20 ADD DUP3 ADD PUSH1 0x40 MSTORE DUP1 ISZERO PUSH2 0x291 JUMPI DUP2 PUSH1 0x20 ADD PUSH1 0x20 DUP3 MUL DUP1 CALLDATASIZE DUP4 CALLDATACOPY DUP1 DUP3 ADD SWAP2 POP POP SWAP1 POP JUMPDEST POP PUSH0 SWAP1 DUP1 MLOAD SWAP1 PUSH1 0x20 ADD SWAP1 PUSH2 0x2A6 SWAP3 SWAP2 SWAP1 PUSH2 0x57B JUMP JUMPDEST POP PUSH0 CALLER PUSH20 0xFFFFFFFFFFFFFFFFFFFFFFFFFFFFFFFFFFFFFFFF AND SELFBALANCE PUSH1 0x40 MLOAD PUSH2 0x2CC SWAP1 PUSH2 0x7DB JUMP JUMPDEST PUSH0 PUSH1 0x40 MLOAD DUP1 DUP4 SUB DUP2 DUP6 DUP8 GAS CALL SWAP3 POP POP POP RETURNDATASIZE DUP1 PUSH0 DUP2 EQ PUSH2 0x306 JUMPI PUSH1 0x40 MLOAD SWAP2 POP PUSH1 0x1F NOT PUSH1 0x3F RETURNDATASIZE ADD AND DUP3 ADD PUSH1 0x40 MSTORE RETURNDATASIZE DUP3 MSTORE RETURNDATASIZE PUSH0 PUSH1 0x20 DUP5 ADD RETURNDATACOPY PUSH2 0x30B JUMP JUMPDEST PUSH1 0x60 SWAP2 POP JUMPDEST POP POP SWAP1 POP DUP1 PUSH2 0x34F JUMPI PUSH1 0x40 MLOAD PUSH32 0x8C379A000000000000000000000000000000000000000000000000000000000 DUP2 MSTORE PUSH1 0x4 ADD PUSH2 0x346 SWAP1 PUSH2 0x849 JUMP JUMPDEST PUSH1 0x40 MLOAD DUP1 SWAP2 SUB SWAP1 REVERT JUMPDEST POP JUMP JUMPDEST PUSH8 0x4563918244F40000 DUP2 JUMP JUMPDEST PUSH8 0x4563918244F40000 PUSH2 0x370 CALLVALUE PUSH2 0x49E JUMP JUMPDEST GT PUSH2 0x3B0 JUMPI PUSH1 0x40 MLOAD PUSH32 0x8C379A000000000000000000000000000000000000000000000000000000000 DUP2 MSTORE PUSH1 0x4 ADD PUSH2 0x3A7 SWAP1 PUSH2 0x8B1 JUMP JUMPDEST PUSH1 0x40 MLOAD DUP1 SWAP2 SUB SWAP1 REVERT JUMPDEST PUSH0 CALLER SWAP1 DUP1 PUSH1 0x1 DUP2 SLOAD ADD DUP1 DUP3 SSTORE DUP1 SWAP2 POP POP PUSH1 0x1 SWAP1 SUB SWAP1 PUSH0 MSTORE PUSH1 0x20 PUSH0 KECCAK256 ADD PUSH0 SWAP1 SWAP2 SWAP1 SWAP2 SWAP1 SWAP2 PUSH2 0x100 EXP DUP2 SLOAD DUP2 PUSH20 0xFFFFFFFFFFFFFFFFFFFFFFFFFFFFFFFFFFFFFFFF MUL NOT AND SWAP1 DUP4 PUSH20 0xFFFFFFFFFFFFFFFFFFFFFFFFFFFFFFFFFFFFFFFF AND MUL OR SWAP1 SSTORE POP CALLVALUE PUSH1 0x1 PUSH0 CALLER PUSH20 0xFFFFFFFFFFFFFFFFFFFFFFFFFFFFFFFFFFFFFFFF AND PUSH20 0xFFFFFFFFFFFFFFFFFFFFFFFFFFFFFFFFFFFFFFFF AND DUP2 MSTORE PUSH1 0x20 ADD SWAP1 DUP2 MSTORE PUSH1 0x20 ADD PUSH0 KECCAK256 PUSH0 DUP3 DUP3 SLOAD PUSH2 0x45B SWAP2 SWAP1 PUSH2 0x8FC JUMP JUMPDEST SWAP3 POP POP DUP2 SWAP1 SSTORE POP JUMP JUMPDEST PUSH0 DUP2 DUP2 SLOAD DUP2 LT PUSH2 0x472 JUMPI PUSH0 DUP1 REVERT JUMPDEST SWAP1 PUSH0 MSTORE PUSH1 0x20 PUSH0 KECCAK256 ADD PUSH0 SWAP2 POP SLOAD SWAP1 PUSH2 0x100 EXP SWAP1 DIV PUSH20 0xFFFFFFFFFFFFFFFFFFFFFFFFFFFFFFFFFFFFFFFF AND DUP2 JUMP JUMPDEST PUSH0 PUSH0 PUSH2 0x4A8 PUSH2 0x4D6 JUMP JUMPDEST SWAP1 POP PUSH0 PUSH8 0xDE0B6B3A7640000 DUP5 DUP4 PUSH2 0x4C0 SWAP2 SWAP1 PUSH2 0x92F JUMP JUMPDEST PUSH2 0x4CA SWAP2 SWAP1 PUSH2 0x99D JUMP JUMPDEST SWAP1 POP DUP1 SWAP3 POP POP POP SWAP2 SWAP1 POP JUMP JUMPDEST PUSH0 PUSH0 PUSH20 0x694AA1769357215DE4FAC081BF1F309ADC325306 SWAP1 POP PUSH0 DUP2 PUSH20 0xFFFFFFFFFFFFFFFFFFFFFFFFFFFFFFFFFFFFFFFF AND PUSH4 0xFEAF968C PUSH1 0x40 MLOAD DUP2 PUSH4 0xFFFFFFFF AND PUSH1 0xE0 SHL DUP2 MSTORE PUSH1 0x4 ADD PUSH1 0xA0 PUSH1 0x40 MLOAD DUP1 DUP4 SUB DUP2 DUP7 GAS STATICCALL ISZERO DUP1 ISZERO PUSH2 0x539 JUMPI RETURNDATASIZE PUSH0 PUSH0 RETURNDATACOPY RETURNDATASIZE PUSH0 REVERT JUMPDEST POP POP POP POP PUSH1 0x40 MLOAD RETURNDATASIZE PUSH1 0x1F NOT PUSH1 0x1F DUP3 ADD AND DUP3 ADD DUP1 PUSH1 0x40 MSTORE POP DUP2 ADD SWAP1 PUSH2 0x55D SWAP2 SWAP1 PUSH2 0xA53 JUMP JUMPDEST POP POP POP SWAP2 POP POP PUSH5 0x2540BE400 DUP2 PUSH2 0x574 SWAP2 SWAP1 PUSH2 0xACA JUMP JUMPDEST SWAP3 POP POP POP SWAP1 JUMP JUMPDEST DUP3 DUP1 SLOAD DUP3 DUP3 SSTORE SWAP1 PUSH0 MSTORE PUSH1 0x20 PUSH0 KECCAK256 SWAP1 DUP2 ADD SWAP3 DUP3 ISZERO PUSH2 0x5F1 JUMPI SWAP2 PUSH1 0x20 MUL DUP3 ADD JUMPDEST DUP3 DUP2 GT ISZERO PUSH2 0x5F0 JUMPI DUP3 MLOAD DUP3 PUSH0 PUSH2 0x100 EXP DUP2 SLOAD DUP2 PUSH20 0xFFFFFFFFFFFFFFFFFFFFFFFFFFFFFFFFFFFFFFFF MUL NOT AND SWAP1 DUP4 PUSH20 0xFFFFFFFFFFFFFFFFFFFFFFFFFFFFFFFFFFFFFFFF AND MUL OR SWAP1 SSTORE POP SWAP2 PUSH1 0x20 ADD SWAP2 SWAP1 PUSH1 0x1 ADD SWAP1 PUSH2 0x599 JUMP JUMPDEST JUMPDEST POP SWAP1 POP PUSH2 0x5FE SWAP2 SWAP1 PUSH2 0x602 JUMP JUMPDEST POP SWAP1 JUMP JUMPDEST JUMPDEST DUP1 DUP3 GT ISZERO PUSH2 0x619 JUMPI PUSH0 DUP2 PUSH0 SWAP1 SSTORE POP PUSH1 0x1 ADD PUSH2 0x603 JUMP JUMPDEST POP SWAP1 JUMP JUMPDEST PUSH0 PUSH0 REVERT JUMPDEST PUSH0 PUSH20 0xFFFFFFFFFFFFFFFFFFFFFFFFFFFFFFFFFFFFFFFF DUP3 AND SWAP1 POP SWAP2 SWAP1 POP JUMP JUMPDEST PUSH0 PUSH2 0x64A DUP3 PUSH2 0x621 JUMP JUMPDEST SWAP1 POP SWAP2 SWAP1 POP JUMP JUMPDEST PUSH2 0x65A DUP2 PUSH2 0x640 JUMP JUMPDEST DUP2 EQ PUSH2 0x664 JUMPI PUSH0 PUSH0 REVERT JUMPDEST POP JUMP JUMPDEST PUSH0 DUP2 CALLDATALOAD SWAP1 POP PUSH2 0x675 DUP2 PUSH2 0x651 JUMP JUMPDEST SWAP3 SWAP2 POP POP JUMP JUMPDEST PUSH0 PUSH1 0x20 DUP3 DUP5 SUB SLT ISZERO PUSH2 0x690 JUMPI PUSH2 0x68F PUSH2 0x61D JUMP JUMPDEST JUMPDEST PUSH0 PUSH2 0x69D DUP5 DUP3 DUP6 ADD PUSH2 0x667 JUMP JUMPDEST SWAP2 POP POP SWAP3 SWAP2 POP POP JUMP JUMPDEST PUSH0 DUP2 SWAP1 POP SWAP2 SWAP1 POP JUMP JUMPDEST PUSH2 0x6B8 DUP2 PUSH2 0x6A6 JUMP JUMPDEST DUP3 MSTORE POP POP JUMP JUMPDEST PUSH0 PUSH1 0x20 DUP3 ADD SWAP1 POP PUSH2 0x6D1 PUSH0 DUP4 ADD DUP5 PUSH2 0x6AF JUMP JUMPDEST SWAP3 SWAP2 POP POP JUMP JUMPDEST PUSH2 0x6E0 DUP2 PUSH2 0x6A6 JUMP JUMPDEST DUP2 EQ PUSH2 0x6EA JUMPI PUSH0 PUSH0 REVERT JUMPDEST POP JUMP JUMPDEST PUSH0 DUP2 CALLDATALOAD SWAP1 POP PUSH2 0x6FB DUP2 PUSH2 0x6D7 JUMP JUMPDEST SWAP3 SWAP2 POP POP JUMP JUMPDEST PUSH0 PUSH1 0x20 DUP3 DUP5 SUB SLT ISZERO PUSH2 0x716 JUMPI PUSH2 0x715 PUSH2 0x61D JUMP JUMPDEST JUMPDEST PUSH0 PUSH2 0x723 DUP5 DUP3 DUP6 ADD PUSH2 0x6ED JUMP JUMPDEST SWAP2 POP POP SWAP3 SWAP2 POP POP JUMP JUMPDEST PUSH2 0x735 DUP2 PUSH2 0x640 JUMP JUMPDEST DUP3 MSTORE POP POP JUMP JUMPDEST PUSH0 PUSH1 0x20 DUP3 ADD SWAP1 POP PUSH2 0x74E PUSH0 DUP4 ADD DUP5 PUSH2 0x72C JUMP JUMPDEST SWAP3 SWAP2 POP POP JUMP JUMPDEST PUSH32 0x4E487B7100000000000000000000000000000000000000000000000000000000 PUSH0 MSTORE PUSH1 0x32 PUSH1 0x4 MSTORE PUSH1 0x24 PUSH0 REVERT JUMPDEST PUSH32 0x4E487B7100000000000000000000000000000000000000000000000000000000 PUSH0 MSTORE PUSH1 0x41 PUSH1 0x4 MSTORE PUSH1 0x24 PUSH0 REVERT JUMPDEST PUSH0 DUP2 SWAP1 POP SWAP3 SWAP2 POP POP JUMP JUMPDEST POP JUMP JUMPDEST PUSH0 PUSH2 0x7C6 PUSH0 DUP4 PUSH2 0x7AE JUMP JUMPDEST SWAP2 POP PUSH2 0x7D1 DUP3 PUSH2 0x7B8 JUMP JUMPDEST PUSH0 DUP3 ADD SWAP1 POP SWAP2 SWAP1 POP JUMP JUMPDEST PUSH0 PUSH2 0x7E5 DUP3 PUSH2 0x7BB JUMP JUMPDEST SWAP2 POP DUP2 SWAP1 POP SWAP2 SWAP1 POP JUMP JUMPDEST PUSH0 DUP3 DUP3 MSTORE PUSH1 0x20 DUP3 ADD SWAP1 POP SWAP3 SWAP2 POP POP JUMP JUMPDEST PUSH32 0x43616C6C206661696C6564000000000000000000000000000000000000000000 PUSH0 DUP3 ADD MSTORE POP JUMP JUMPDEST PUSH0 PUSH2 0x833 PUSH1 0xB DUP4 PUSH2 0x7EF JUMP JUMPDEST SWAP2 POP PUSH2 0x83E DUP3 PUSH2 0x7FF JUMP JUMPDEST PUSH1 0x20 DUP3 ADD SWAP1 POP SWAP2 SWAP1 POP JUMP JUMPDEST PUSH0 PUSH1 0x20 DUP3 ADD SWAP1 POP DUP2 DUP2 SUB PUSH0 DUP4 ADD MSTORE PUSH2 0x860 DUP2 PUSH2 0x827 JUMP JUMPDEST SWAP1 POP SWAP2 SWAP1 POP JUMP JUMPDEST PUSH32 0x6469646E27742073656E6420656E6F7567682065746800000000000000000000 PUSH0 DUP3 ADD MSTORE POP JUMP JUMPDEST PUSH0 PUSH2 0x89B PUSH1 0x16 DUP4 PUSH2 0x7EF JUMP JUMPDEST SWAP2 POP PUSH2 0x8A6 DUP3 PUSH2 0x867 JUMP JUMPDEST PUSH1 0x20 DUP3 ADD SWAP1 POP SWAP2 SWAP1 POP JUMP JUMPDEST PUSH0 PUSH1 0x20 DUP3 ADD SWAP1 POP DUP2 DUP2 SUB PUSH0 DUP4 ADD MSTORE PUSH2 0x8C8 DUP2 PUSH2 0x88F JUMP JUMPDEST SWAP1 POP SWAP2 SWAP1 POP JUMP JUMPDEST PUSH32 0x4E487B7100000000000000000000000000000000000000000000000000000000 PUSH0 MSTORE PUSH1 0x11 PUSH1 0x4 MSTORE PUSH1 0x24 PUSH0 REVERT JUMPDEST PUSH0 PUSH2 0x906 DUP3 PUSH2 0x6A6 JUMP JUMPDEST SWAP2 POP PUSH2 0x911 DUP4 PUSH2 0x6A6 JUMP JUMPDEST SWAP3 POP DUP3 DUP3 ADD SWAP1 POP DUP1 DUP3 GT ISZERO PUSH2 0x929 JUMPI PUSH2 0x928 PUSH2 0x8CF JUMP JUMPDEST JUMPDEST SWAP3 SWAP2 POP POP JUMP JUMPDEST PUSH0 PUSH2 0x939 DUP3 PUSH2 0x6A6 JUMP JUMPDEST SWAP2 POP PUSH2 0x944 DUP4 PUSH2 0x6A6 JUMP JUMPDEST SWAP3 POP DUP3 DUP3 MUL PUSH2 0x952 DUP2 PUSH2 0x6A6 JUMP JUMPDEST SWAP2 POP DUP3 DUP3 DIV DUP5 EQ DUP4 ISZERO OR PUSH2 0x969 JUMPI PUSH2 0x968 PUSH2 0x8CF JUMP JUMPDEST JUMPDEST POP SWAP3 SWAP2 POP POP JUMP JUMPDEST PUSH32 0x4E487B7100000000000000000000000000000000000000000000000000000000 PUSH0 MSTORE PUSH1 0x12 PUSH1 0x4 MSTORE PUSH1 0x24 PUSH0 REVERT JUMPDEST PUSH0 PUSH2 0x9A7 DUP3 PUSH2 0x6A6 JUMP JUMPDEST SWAP2 POP PUSH2 0x9B2 DUP4 PUSH2 0x6A6 JUMP JUMPDEST SWAP3 POP DUP3 PUSH2 0x9C2 JUMPI PUSH2 0x9C1 PUSH2 0x970 JUMP JUMPDEST JUMPDEST DUP3 DUP3 DIV SWAP1 POP SWAP3 SWAP2 POP POP JUMP JUMPDEST PUSH0 PUSH10 0xFFFFFFFFFFFFFFFFFFFF DUP3 AND SWAP1 POP SWAP2 SWAP1 POP JUMP JUMPDEST PUSH2 0x9EB DUP2 PUSH2 0x9CD JUMP JUMPDEST DUP2 EQ PUSH2 0x9F5 JUMPI PUSH0 PUSH0 REVERT JUMPDEST POP JUMP JUMPDEST PUSH0 DUP2 MLOAD SWAP1 POP PUSH2 0xA06 DUP2 PUSH2 0x9E2 JUMP JUMPDEST SWAP3 SWAP2 POP POP JUMP JUMPDEST PUSH0 DUP2 SWAP1 POP SWAP2 SWAP1 POP JUMP JUMPDEST PUSH2 0xA1E DUP2 PUSH2 0xA0C JUMP JUMPDEST DUP2 EQ PUSH2 0xA28 JUMPI PUSH0 PUSH0 REVERT JUMPDEST POP JUMP JUMPDEST PUSH0 DUP2 MLOAD SWAP1 POP PUSH2 0xA39 DUP2 PUSH2 0xA15 JUMP JUMPDEST SWAP3 SWAP2 POP POP JUMP JUMPDEST PUSH0 DUP2 MLOAD SWAP1 POP PUSH2 0xA4D DUP2 PUSH2 0x6D7 JUMP JUMPDEST SWAP3 SWAP2 POP POP JUMP JUMPDEST PUSH0 PUSH0 PUSH0 PUSH0 PUSH0 PUSH1 0xA0 DUP7 DUP9 SUB SLT ISZERO PUSH2 0xA6C JUMPI PUSH2 0xA6B PUSH2 0x61D JUMP JUMPDEST JUMPDEST PUSH0 PUSH2 0xA79 DUP9 DUP3 DUP10 ADD PUSH2 0x9F8 JUMP JUMPDEST SWAP6 POP POP PUSH1 0x20 PUSH2 0xA8A DUP9 DUP3 DUP10 ADD PUSH2 0xA2B JUMP JUMPDEST SWAP5 POP POP PUSH1 0x40 PUSH2 0xA9B DUP9 DUP3 DUP10 ADD PUSH2 0xA3F JUMP JUMPDEST SWAP4 POP POP PUSH1 0x60 PUSH2 0xAAC DUP9 DUP3 DUP10 ADD PUSH2 0xA3F JUMP JUMPDEST SWAP3 POP POP PUSH1 0x80 PUSH2 0xABD DUP9 DUP3 DUP10 ADD PUSH2 0x9F8 JUMP JUMPDEST SWAP2 POP POP SWAP3 SWAP6 POP SWAP3 SWAP6 SWAP1 SWAP4 POP JUMP JUMPDEST PUSH0 PUSH2 0xAD4 DUP3 PUSH2 0xA0C JUMP JUMPDEST SWAP2 POP PUSH2 0xADF DUP4 PUSH2 0xA0C JUMP JUMPDEST SWAP3 POP DUP3 DUP3 MUL PUSH2 0xAED DUP2 PUSH2 0xA0C JUMP JUMPDEST SWAP2 POP PUSH32 0x8000000000000000000000000000000000000000000000000000000000000000 DUP5 EQ PUSH0 DUP5 SLT AND ISZERO PUSH2 0xB24 JUMPI PUSH2 0xB23 PUSH2 0x8CF JUMP JUMPDEST JUMPDEST DUP3 DUP3 SDIV DUP5 EQ DUP4 ISZERO OR PUSH2 0xB39 JUMPI PUSH2 0xB38 PUSH2 0x8CF JUMP JUMPDEST JUMPDEST POP SWAP3 SWAP2 POP POP JUMP INVALID LOG2 PUSH5 0x6970667358 0x22 SLT KECCAK256 COINBASE 0x29 0xD2 0xCA EXTDELEGATECALL SWAP12 SWAP11 BLOCKHASH MUL PUSH30 0x27CAF6057EF3D87A99E1299287CBE18371960526687A64736F6C63430008 0x1E STOP CALLER "
		},
		"gasEstimates": {
			"creation": {
				"codeDepositCost": "586800",
				"executionCost": "infinite",
				"totalCost": "infinite"
			},
			"external": {
				"MINIMUM_USD()": "347",
				"addressToAmtFunded(address)": "2780",
				"fund()": "infinite",
				"funders(uint256)": "5009",
				"withdraw()": "infinite"
			}
		},
		"methodIdentifiers": {
			"MINIMUM_USD()": "6b69a592",
			"addressToAmtFunded(address)": "2e715429",
			"fund()": "b60d4288",
			"funders(uint256)": "dc0d3dff",
			"withdraw()": "3ccfd60b"
		}
	},
	"abi": [
		{
			"inputs": [],
			"stateMutability": "nonpayable",
			"type": "constructor"
		},
		{
			"inputs": [],
			"name": "NotOwner",
			"type": "error"
		},
		{
			"inputs": [],
			"name": "MINIMUM_USD",
			"outputs": [
				{
					"internalType": "uint256",
					"name": "",
					"type": "uint256"
				}
			],
			"stateMutability": "view",
			"type": "function"
		},
		{
			"inputs": [
				{
					"internalType": "address",
					"name": "funder",
					"type": "address"
				}
			],
			"name": "addressToAmtFunded",
			"outputs": [
				{
					"internalType": "uint256",
					"name": "amountFunded",
					"type": "uint256"
				}
			],
			"stateMutability": "view",
			"type": "function"
		},
		{
			"inputs": [],
			"name": "fund",
			"outputs": [],
			"stateMutability": "payable",
			"type": "function"
		},
		{
			"inputs": [
				{
					"internalType": "uint256",
					"name": "",
					"type": "uint256"
				}
			],
			"name": "funders",
			"outputs": [
				{
					"internalType": "address",
					"name": "",
					"type": "address"
				}
			],
			"stateMutability": "view",
			"type": "function"
		},
		{
			"inputs": [],
			"name": "withdraw",
			"outputs": [],
			"stateMutability": "nonpayable",
			"type": "function"
		}
	]
}